:10000000C0C20000DBC20000D9C200000C945E2216
:10001000D5C20000D3C20000D1C20000CFC2000090
:10002000CDC20000CBC200000C9440270C940D28D8
:100030000C940B21C3C20000C1C20000BFC200006B
:10004000BDC200000C94231AB9C20000B7C2000060
:10005000B5C200000C948221B1C20000AFC2000002
:10006000ADC20000ABC20000A9C20000A7C20000E0
:10007000A5C20000A3C20000A1C200009FC20000F0
:100080009DC200009BC2000099C2000097C2000000
:1000900095C2000093C2000091C200008FC2000010
:1000A0008DC200008BC2000089C200000763423687
:1000B000B79BD8A71A39685618AEBAAB558C1D3CF9
:1000C000B7CC5763BD6DEDFD753EF6177231BF00BD
:1000D0000000803F08000000BE922449123EABAAF7
:1000E000AA2ABECDCCCC4C3E00000080BEABAAAA52
:1000F000AA3E00000000BF000000803F000000009A
:1001000000084178D3BB4387D1133D190E3CC3BDD2
:100110004282AD2B3E68EC8276BED98FE1A93E4C7F
:1001200080EFFFBE01C4FF7F3F000000000001021E
:10013000E2600103E2000102E2600103E2002B0041
:1001400014001A000800150017000000E000040069
:100150001600070009000A000000E1001D001B0056
:100160000600190005000000457E2900E200E300BA
:10017000477E437E2C002A00130012000C0018005A
:100180001C0000002D0033000F000E000D000B00BE
:100190000000340038003700360010001100000065
:1001A0004F00520051005000487E447E28002B0032
:1001B00014001A00090013000A000000E000040007
:1001C00015001600170007000000E1001D001B00CD
:1001D0000600190005000000457E2900E200E3004A
:1001E000477E437E2C002A0033001C0018000F00BD
:1001F0000D000000340012000C00080011000B007C
:100200000000280038003700360010000E00000003
:100210004F00520051005000487E447E2C002B00BD
:1002200034003600370013001C000000E00004001A
:100230001200080018000C000000E1003300140058
:100240000D000E001B000000457E2900E200E300C7
:10025000477E437E2C002A000F00150006000A008E
:100260000900000038001600110017000B000700FD
:10027000000028001D0019001A00100005000000F1
:100280004F00520051005000487E447E2C00350241
:100290001E001F002000210022000000E0003A00A4
:1002A0003B003C003D003E000000E10040004100FA
:1002B0004200430044000000010001000100010071
:1002C0000100010001002E00270026002500240067
:1002D0002300000001004A0046002E022D023F00CC
:1002E000000031024D0030022F02010045000000E5
:1002F000AE00A900AA00AB0001000100010035001A
:100300001E021F022002210222020000E0003A0029
:100310003B003C003D003E000000E1004000410089
:100320004200430044000000010001000100010000
:100330000100010001002E022702260225022402EC
:10034000230200002D022E004F00520051005000E9
:10035000000031004B0030002F002D002E00000067
:10036000AE00A900AA00AB000100010001000100DD
:10037000007C497E01000100010000000100807442
:100380008174927493741570000001008A748F74E4
:100390008D748E7401000000010001000100010055
:1003A0000100010001000100010001000100010045
:1003B0000100000001000100427E417E407E147079
:1003C00000002778257823782078010001000000BC
:1003D00028782678247821780100010001000000A7
:1003E0000000000000002A2B280000000000000090
:1003F00000000000000000000029000000002C1E8A
:100400003420212224342627252E362D3738271E46
:100410001F202122232425263333362E37381F046C
:1004200005060708090A0B0C0D0E0F101112131404
:1004300015161718191A1B1C1D2F3130232D3504C2
:1004400005060708090A0B0C0D0E0F1011121314E4
:1004500015161718191A1B1C1D2F3130354C0000AA
:10046000000000000000000000000000000000008C
:10047000000000000000000000000000000000007C
:1004800000007E0F00D4FFFFFFC7000000781403B8
:10049000480065006C006900780050006900630046
:1004A0006F000000140359007500730068006100BC
:1004B0006B006F0062006F00000004030904090272
:1004C0003B00020100A03209040000010301010009
:1004D00009211101000122440007058103080001E0
:1004E000090401000103000000092111010001229B
:1004F0003200070582032000011201000200000003
:10050000086532010002000102000105010980A115
:1005100001850319012AB700150126B70095017559
:10052000108100C0050C0901A101850419012AA050
:1005300002150126A002950175108100C005010970
:1005400006A101050719E029E715002501950875A1
:100550000181029501750881010507190029FF1520
:100560000026FF0095067508810005081901290578
:1005700015002501950575019102950175039101FD
:10058000C00011241FBECFEFDAE0DEBFCDBF14E004
:10059000A0E0B1E0E6EBFDE502C005900D92A83FBA
:1005A000B107D9F726E0A8EFB4E001C01D92A23749
:1005B000B207E1F70E9463140C949A2E21CD0E9499
:1005C00086128093FA04C4C00C947B0D0895CF93D7
:1005D000DF93D62FC42F82D5882349F08D2F7ED567
:1005E000882329F08C2F8AD5DF91CF9108958C2F05
:1005F00093D5FACFCF93FB0183342EE7920709F40A
:1006000058C000F580342EE79207C1F140F48132E2
:10061000984709F43FC0C1E08C2FCF9108958134F1
:100620002EE79207C9F182349E47A9F7C581CC23F2
:1006300099F340E068E070E084E391E00E94901656
:1006400082E027C085342EE7920709F45DC008F4E4
:100650004AC087342EE7920709F45EC088349E476B
:10066000D1F6C581CC2309F471C08091F30582FBDA
:10067000CC27C0F982FD66C080E959C0C581CC2372
:1006800059F240E064E070E084E791E00E94901647
:1006900080E0F2D0C0E0C0CFC581CC2309F4BCCF4C
:1006A00040E066E070E084E091E00E94901681E016
:1006B000F0CFC581CC2371F08091FB04811103C080
:1006C00081E08093FB0483E019D545E064E083E09A
:1006D0007EDFE0CF1092FB0483E01ED545E064E0AE
:1006E00083E075DF99CFC581CC2349F08091FB046D
:1006F000811103C081E08093FB0484E0E5CF84E0B6
:100700000BD51092FB04EACFC58185E0CC2311F014
:10071000F5D4C0CF01D580CFC581CC2381F08091A5
:10072000F30582FBCC27C0F982FD03C081E9C7D164
:1007300073CF60E086E391E00E94DF1EABCF81E9DA
:10074000FBD16ACF60E08EE291E0F6CF80E9F8CF8E
:1007500008958630B8F46830A8F4473098F450E033
:1007600097E0699F400D511D1124FA0198E3899F7C
:10077000E00DF11D1124EE0FFF1FE25CFE4F85918D
:100780009491089581E090E00895E3CF089581E089
:100790000895FDCF0895FBCF089581E00895F7CF28
:1007A000089528CF089508950895FDCF08950895D8
:1007B0000895A6E0B0E0EFEDF3E00C948C2D4983B2
:1007C0005A839E833091010589819A81311117C026
:1007D0003E81332389F0222379F047D5182F682FE3
:1007E00089819A8121D569817A81812F0E942B0F7D
:1007F0002696E3E00C94A82D28D5182FF4CF35D5F4
:1008000069817A81F3CFFC01262F40815181628179
:10081000738184819581CDCFCF93DF93EC0161E02B
:10082000F2DFBE01B6DF882349F061E0CE01EBDFE5
:10083000BE01B1DF8170DF91CF91089580E0FACFE2
:100840000F931F93CF93DF93EC0160E0DCDF8C010B
:10085000BE01AADFBE01C801A8DFDF91CF911F91C1
:100860000F91089521E030E0A90102C0440F551F07
:100870008A95E2F7CA01F7C3CF93C82F81E090E0D1
:100880000C2E02C0880F991F0A94E2F70E94320DC5
:100890008C2FE8DFCF91089581E00895FDCF089572
:1008A000FBCF08950F931F93CF93C82F94D30E942B
:1008B000E61B0E946A218C0140E063E070E084E95D
:1008C00091E00E9490168C2FE9DF8C2FE9DFC801A0
:1008D0000E94EB208A3F910530F00E943116CF91A3
:1008E0001F910F9108958FE99FE00197F1F700C0E4
:1008F0000000EDCF81E0D6DF0C94A62180E0D2DFAE
:100900000C94B7210F931F93CF93DF938C0161E079
:100910007ADFEC01B8010E94D315811106C080E096
:10092000DF91CF911F910F910895B801CE0137DF6C
:100930008823A9F3B801CE0134DF882381F3B801FD
:10094000CE010E949514882351F3B801CE010E9474
:10095000771C882321F3B801CE010E94541F8823FD
:10096000F1F2B801CE010E94E71A8823C1F2B80162
:10097000CE010E94BF1A882391F2B801CE010E94D5
:100980006910882361F2F8018581882361F0C33002
:10099000FCE7DF07D9F050F4C115ECE7DE07A1F062
:1009A000C130DC47A9F0C801F8DEBACFCB358CE7FF
:1009B000D80799F0CC35ECE7DE0761F0CA35DC47A3
:1009C00091F70E94F70CEFCF95DFA9CF0E942A0D77
:1009D00095DFA5CF0E94EF0CE6CF0E94F90CE3CF84
:1009E000E6DE0E94D32019D00C94311618D0E0DE38
:1009F0000C94D72081E008950895CF93DF93D82FEA
:100A0000F9DFC82F882311F08D2FF6DF8C2FDF91AF
:100A1000CF9108950895F1CF089580E0FCCF0E9412
:100A20009C1FF9CFCF930E949C1FC82F8091FC047C
:100A30008C1771F0C093FC040E9476216093FD0432
:100A40007093FE048093FF04909300058C2FE3DFE6
:100A5000CF910895ADE0B0E0E0E3F5E00C948D2D8A
:100A6000488759876A877B878C879D8791110DD727
:100A70001F8286E0FE013896DE01119601900D92EC
:100A80008A95E1F78D8181110CC029813A814B81D2
:100A90005C816D817E818F8148D62D96E2E00C9439
:100AA000A92DCE010196B8DE8111EFCFF6CFFC0162
:100AB0002481213019F48081918108C40895CF9355
:100AC000C82F882389F08CEF8C0F813A78F48C2F13
:100AD0000E942220882321F08C2F0E9463203DD782
:100AE0008C2F0E945D2039D7CF91089580E28C0F22
:100AF000883040F4C77081E001C0880FCA95EAF7DA
:100B0000A7D6F1CFEBE5EC0FE33040F4F0E0E15590
:100B1000FB4F808190E00E94BF1FE6CFC85ACB31C7
:100B200018F7EC2FF0E0EE0FFF1FE758FB4F808126
:100B300091810E94E61FD8CF882319F19CEF980F6E
:100B4000913A18F40E94632008C790E2980F9830F9
:100B500048F4877091E001C0990F8A95EAF7892FD0
:100B60007DD6F2CF9BE5980F933020F490E080E0A3
:100B70000C94BF1F885A8B3120F490E080E00C94D5
:100B8000E61F08951F93CF93DF93182FEB0197DF94
:100B9000209731F4812FD0DFDF91CF911F910895FD
:100BA0008FE99FE00197F1F700C000002197F0CF97
:100BB00070E060E0893311F460E570E0E3CF8823F2
:100BC00011F046D6CAC60895882311F047D6C5C687
:100BD0000895B0E0A0E0EFEEF5E00C94862D6C01F6
:100BE000D62FC72FFC011581068102950F7026D6DE
:100BF000E82E8823E9F0E12E1123D1F08C2F807F9D
:100C0000803461F080E28D0F8830F8F08C2F807E88
:100C1000803221F4D230C8F00023B9F08091F4057D
:100C200082FF13C082E0B5D609D691E0E82EE9260E
:100C3000BC2EB2949FE0B922FBE0FB1580F1EB2DB6
:100C4000F0E0E456F14D0C94682DE12CF1CF0C2F1F
:100C50000F70C07F11F00295007F112381F00023F7
:100C600049F080E28D0F883010F0D11105C0802F3F
:100C7000EFD573D68D2F40C0802FFAD5FACF8D2FA8
:100C80005BDF002361F080E28D0F883010F0D1111E
:100C900003C0802FE3D502C0802FF0D55ED6EB2DA8
:100CA000E850FF0B349708F048C10E949C1FB3DE48
:100CB000CDB7DEB7E9E00C94A22D2C2F2F70F22EC9
:100CC000C07FC03219F0F29480EFF822DD2341F0AA
:100CD000D13081F1112309F439C00023C9F0CACF02
:100CE0008091F40582FD10C0112341F0FF2019F01E
:100CF0008F2DAED532D680E0E2DED1CF80E01CDF92
:100D0000FF2069F28F2DC6CF112359F0011103C0C6
:100D10008F2D55DFC4CF013009F0C1CF8F2DC9D53C
:100D2000BECF0111BCCF8F2D4FDF8F2DCDD58F2D95
:100D3000B2D5B5CF112321F0063008F0B0CFE8CFFF
:100D4000053008F0ACCF8F2D3FDFA9CF0023D9F3BA
:100D5000D93349F43FEF87EE93E031508040904023
:100D6000E1F700C000008D2FE7DE99CF8C2F86952C
:100D70008695837069F0813009F091CF8D2F9C2F7B
:100D80009370111102C080E090E00E94E61F87CFAF
:100D90008D2F9C2F9370111102C080E090E00E9473
:100DA000BF1F7DCF8C2F837081F5111178CF4D2F10
:100DB000429546954770440F440F2D2F2F7030E019
:100DC000042E02C0220F331F0A94E2F790E080E065
:100DD000D4FF09C08FE090E002C0880F991F4A95A8
:100DE000E2F780959095C695C695C370822B932B9C
:100DF000C23039F040F4C13011F03ED150CF35D17E
:100E00004ECF41D14CCF2FD14ACF8695112311F02F
:100E10008C2F8170882309F442CF4D2F429546953F
:100E20004770440F440F2D2F2F7030E0042E02C066
:100E3000220F331F0A94E2F790E080E0D4FF09C04C
:100E40008FE090E002C0880F991F4A95E2F78095E5
:100E50009095C695C695C370822B932BC23039F0FE
:100E600040F4C13011F07DD11ACF74D118CF80D1A8
:100E700016CF16D114CFCF70112321F08C2F3ED175
:100E80008D2F47CF8D2FA0DE8C2F46D108CFD23F9C
:100E900039F160F4D03FB9F0D13F81F0112309F46A
:100EA0003CC00111E7CE8C2F8F711EC0D33FF1F0F3
:100EB000D43FA1F78091F40582FD20C08C2F8F7163
:100EC000112319F311C0112339F0053008F0E7CED2
:100ED0008C2F8F7131D1E3CE063008F0E0CEF8CF01
:100EE0008C2F8F711111D1CF09D1D9CE112321F0BF
:100EF0008C2F8F71F9D0D3CEDAD0D1CE112329F037
:100F000063E08C2F8F712ED5CACE81E042D502309E
:100F100008F4C5CE82E03DD5C2CE002359F0D933C6
:100F200009F021CFEFEFF7EE23E0E150F040204051
:100F3000E1F717CF8C2F8F71A8CFEE2009F4B8CE30
:100F400079D480FDB5CEF60115826ED4D7D0C60116
:100F500017D06AD4E1D0ACCE0F931F93CF93DF9319
:100F6000EC01688179818D81BAD18C0108D17AD068
:100F7000B801CE012EDEDF91CF911F910F91089520
:100F8000CF93DF93EC018C81882381F0CE01BADC12
:100F900081110FC053D4882349F08D81882331F00B
:100FA0008091F40582FF02C082E0F3D4DF91CF91FB
:100FB0000895CE01D1DFCE0143DCF8CF90E080E090
:100FC0000E94BF1F90E080E00E94E61F5ED4C5C46F
:100FD0000E946920F3CF49D4FBCF92959F70963041
:100FE00091F058F4925F9F70923058F4803F19F05E
:100FF00030F4883E30F481E008959A5FF4CF843F66
:10100000D1F380E00895883EB0F3813FD1F7F3CF6C
:10101000FC012481222321F08081918157D1DDCFF1
:1010200080E00895A6E0B0E0E8E1F8E00C948D2DB2
:101030002696E2E00C94A92DA7E0B0E0E2E2F8E009
:101040000C948D2D2796E2E00C94A92D0895FECFE7
:101050000895FDCF0895FADFFCDF9093210580937A
:10106000200508950895F7CF089520912005309127
:101070002105822B932BEFCF209120053091210564
:1010800082239323E8CF20912005309121058227E8
:101090009327E1CFDBCF0895FDCF0895D7CF0895F3
:1010A000FDDFFADF90931F0580931E05089590E001
:1010B00080E0F6CF009729F481E0662371F080E0AC
:1010C0000CC021E030E002C0220F331F6A95E2F726
:1010D0002823392381E0232B91F30895682F8091F1
:1010E0001E0590911F05E6CF21E030E0A90102C066
:1010F000440F551F8A95E2F7CA01D2CF21E030E0B4
:1011000002C0220F331F8A95E2F780911E0590914D
:101110001F05822B932BC4CF21E030E002C0220FA9
:10112000331F8A95E2F72095309580911E059091A6
:101130001F0582239323B4CF21E030E002C0220FA9
:10114000331F8A95E2F780911E0590911F05822733
:101150009327A6CF20911E0530911F05822B932B3C
:101160009FCF20911E0530911F058223932398CF96
:1011700020911E0530911F058227932791CF089556
:10118000262F277091E001C0990F2A95EAF723E0F6
:10119000769567952A95E1F7660F771F660F771F9B
:1011A000FA01E60FF71F50E040E0682F70E08191F0
:1011B000DF0111979B01042E02C0369527950A94F2
:1011C000E2F7217021952827292328272C934F5FA8
:1011D0005F4F4430510559F70895A82FA77023E0B9
:1011E000969587952A95E1F7880F991F880F991F83
:1011F000FB01E80FF91F50E040E080E0219130E072
:101200000A2E02C0369527950A94E2F721703327FB
:10121000042E01C0220F0A94EAF7822B4F5F5F4F22
:101220004430510559F70895262F983068F48730D7
:1012300058F4682F70E087E0989F600D711D1124AD
:1012400042E055E0822F9CCF0895292F983058F422
:10125000873048F490E062E075E037E0239F800D2E
:10126000911D1124BACF80E00895B0E0A0E0EBE337
:10127000F9E00C94862D7C0100911E0510911F054C
:101280008091200590912105082B192BCFE0D0E00B
:10129000CC24C394D12CBC2EC6010C2E02C0880FC6
:1012A000991F0A94E2F780239123892B49F421970F
:1012B00090F7B12C8B2DCDB7DEB7E9E00C94A22DC1
:1012C000B7018C2FD3D5019791F3F4CFCF93DF9350
:1012D000EC01CBDFBE01CAD5DF91CF9108951F93FA
:1012E000CF93DF93EB0190910105992331F0CB016E
:1012F000EDDFDF91CF911F910895882351F0CB014D
:10130000B4DF182F682FCE018FDFBE01812FAED53D
:10131000F0CFCB019ADF182FF8CF1F93CF93DF9335
:10132000C091220517E0809123058C1304C0DF9142
:10133000CF911F910895D0E01C9FF0011D9FF00DEB
:101340001124EC5DFA4F2081318142815381648107
:101350007581868171DE2196C770E5CF20915C058D
:1013600030915D0540915E0550915F05609160058B
:1013700070916105809162055FCECF93DF9380917C
:101380006205807F09F04BC080916105882309F4D4
:1013900046C0E091220550912305C0915D05D09192
:1013A0005C0560915E0570915F0547E05E17B9F1DD
:1013B0008E2F90E0E49FF0011124EC5DFA4F248120
:1013C000222381F1489FF001499FF00D1124DF0194
:1013D000AC5DBA4F11962C9111972C1323C02C9110
:1013E0002D1320C015962C91159721111BC0129614
:1013F0002D913C91261B370B2436310598F48091B2
:1014000062058F70806180936205E65DFA4F80818E
:101410008F70806180838CE595E0B2DD7EDFDF91A7
:10142000CF910895FC013196E770C0CF482F2091ED
:1014300022059091230557E0291302C080E008950A
:1014400030E0529FF001539FF00D1124EC5DFA4FF4
:101450008181681306C08081481303C08581811192
:10146000EECF2F5F3F4F2770E7CFA4E1B0E0EBE373
:10147000FAE00C94832D8C0186E0F801DE011F96C2
:1014800001900D928A95E1F7F8018481E5809CE551
:10149000A92E95E0B92E9091600591111AC088236C
:1014A000A9F0EE2089F0C801B3DDF82E882361F0A1
:1014B00087E0F801D50101900D928A95E1F7C50109
:1014C000F6DA5BDF4BDF59C0C8015ADDFF24F39425
:1014D00054C0C080D18082809380F09061052091BB
:1014E0005E0530915F05A401421B530BFF2009F4F8
:1014F000E9C04436510508F09CC0882309F43DC07A
:1015000090915D0580916205282F207F09F056C0DB
:10151000D91214C090915C05C91210C0E11048C0E6
:101520008F7080618093620519DF8CE595E028DD7E
:1015300080916205F8018683F12C1FC0E11038C04C
:101540006D2D8C2D73DF6D2D8C2D70DFE82E8111AC
:10155000F3CFCF86D88A8F859889B8DE292F229538
:101560002F70243078F49F702230A0F09923B1F0CE
:10157000F8019681907F91F4FE2C8F2D6496ECE01B
:101580000C949F2D2A5F2F70223060F0C801F8DC88
:10159000EF2CF2CF992311F0882371F3805E88300D
:1015A00058F3F4CF803F40F3815F833078F7E4CF86
:1015B00080916205816080936205BECFD91212C00E
:1015C00090915C05C9120EC0E1100CC08683C80161
:1015D000D7DC87E0F801ACE5B5E001900D928A9583
:1015E000E1F770CFC80114DD882309F46DCFEE2038
:1015F00009F46ACF80916205803280F020915C0509
:1016000030915D05398728879B868A869091600591
:101610009C871D868E87CE010896B2DC87E0F80194
:10162000ACE5B5E001900D928A95E1F7A6DE96DE75
:101630004DCF90916205292F207F89F4682D9A8AD9
:10164000898AA6017A899E2DEDDC8CE595E098DCEF
:1016500087E0F50111928A95E9F780DE6DCF882346
:1016600009F48BCF80915D058D110FC080915C05D1
:10167000C8120BC0E11009C09683C80181DC87E065
:10168000F50111928A95E9F778CFC801C1DC88236A
:1016900009F41ACFEE2009F417CF80916205803249
:1016A00008F4BCCF20915C0530915D053A83298315
:1016B0009C828B82909160059D831E828F83CE01D8
:1016C0000196ABCF4436510518F5882309F4FECEB8
:1016D000FE2CEE2009F4F8CE80915D058D110CC032
:1016E00080915C05C81208C087E0ACE5B5E00190C8
:1016F0000D928A95E1F741CFC8018ADC81118ECF26
:1017000080916205816080936205C80139DC35CF24
:10171000682D9A8A898AA6017A899E2D83DC87E0C2
:10172000F50111928A95E9F7CDCEAEE0B0E0EBE994
:10173000FBE00C948C2D288739874A875B876C8760
:101740007D878E87CE01089690DE8823A9F06C8570
:10175000662339F0288539854A855B857D858E85A8
:101760006BDC17E0809122059091230589133BC023
:101770002E96E3E00C94A82D87E0FE013896DE015A
:10178000119601900D928A95E1F78C85882349F393
:101790002091230530E0C901019687709927409177
:1017A00022054817190691F097E0929FD001939F68
:1017B000B00D1124AC5DBA4FFE01319601900D922F
:1017C0009A95E1F780932305A8DDCBCF04DC109236
:1017D00023051092220587E0ECE5F5E0DF011D927C
:1017E0008A95E9F7BECF819FC00111248C5D9A4F85
:1017F0003CDE882309F4BCCFE09122051E9FF00156
:101800001124EC5DFA4F2081318142815381648142
:101810007581868111DC8091220590E001968770A8
:101820009927809322059ECF80916B05869586959A
:101830008695089580916B058770089590916B054A
:10184000977081E009F480E008958091770508950C
:1018500090917705892B80937705089580959091D5
:10186000770598239093770508951092770508954A
:1018700090917605892B80937605089580959091B7
:10188000760598239093760508951092760508952D
:101890000895FECF089590916C05292F282329F0F3
:1018A0008095892380936C05F4CF08950895FECF29
:1018B000089590916D05292F2823281721F0982B42
:1018C00090936D05F4CF089590916D05292F2823ED
:1018D00029F08095892380936D05E9CF0895809143
:1018E0006D05882321F010926D0580E0E0CF08950A
:1018F0000F931F93CF93DF930091AC011091AD0133
:10190000C091770580917605C82B80916D0588235D
:1019100029F0C82B0E940D208111E1DFF801C0835E
:10192000C091AC01D091AD0148E050E063E675E0B4
:10193000CE010E941D2E892B59F088E0FE01A3E6FE
:10194000B5E001900D928A95E1F7CE010E94B21F99
:10195000DF91CF911F910F910895CACF08950895F7
:10196000FECF08959091F40592FF0EC098E0899FF4
:1019700090011124622B60936B05C0DB80916B0595
:10198000869586958695ECCFB9CB10926B0580E055
:10199000E7CF90916B058095892380936B05282F65
:1019A000277059F4891749F09091F40592FF05C00A
:1019B000869586958695B0DBE8CF08959091F405DD
:1019C00092FB222720F9281749F080FB92F9909387
:1019D000F40583EF95E04AD082E0DBCF0895809153
:1019E000F40582FB882780F991E08927E7CF81E021
:1019F000E5CF80E0E3CF60E070E0CB01DAC360E0E8
:101A000070E0CB01D0D3F7CFA4E0B0E0EAE0FDE096
:101A10000C948D2D70D37BD31C82CE0104968ED373
:101A200081E090E0909321058093200593D31A8262
:101A300019828A8184618A83CE0101969CD31B829C
:101A4000CE010396AAD3DBDF2496E2E00C94A92D05
:101A5000DBCF089562C308954FC3089564C308950A
:101A600073C3089577C308957AC3089584C308950E
:101A700089C3089592C30895A2C30895A6E0B0E073
:101A8000E4E4FDE00C948B2D0E946A218C0180918E
:101A90007805909179058017910781F019821A8253
:101AA0000E946A21682F49815A81792F80E090E055
:101AB0000E942A0510937905009378052696E4E0A4
:101AC0000C94A72DEBD260938605709387058093C5
:101AD00088059093890560938205709383058093B0
:101AE000840590938505089508950895FDCF089580
:101AF0000895FEDFFBCF08950895FEDF0C94E40205
:101B000081E0089587E690E1EFD6EFDFF2CFFEC4E3
:101B10000895089508950895FCDFFCDFFCCF9CDF55
:101B2000811101C095DF8AE895E098DF83EF95E0A9
:101B30009BDF96DF98DA80911E0590911F05ACCA55
:101B40000E94612186D2E7D43ED4E9DF0E940A05D3
:101B50000E9401170E94A71AEBD4CFCFD7D48111CE
:101B60000C941B1C0895A6E0B0E0E9EBFDE00C949A
:101B7000842DC6DF811108C081DFF0DF0E941205CD
:101B80002696EBE00C94A02D3ED48AE7A82E85E0A3
:101B9000B82E750110E0F70101917F01812F17D355
:101BA0001F5F183009F43DC00817A9F380918A051A
:101BB00081FD13D3ACDFC82E10E099249394812FBC
:101BC00006D3082FF50181915F01081729F1D02E66
:101BD000D826F12CEE24E3948D2D8E21A9F0CC2073
:101BE00099F0F9821A830E946A219C838B839D82DB
:101BF00091E0802F8E2109F490E049815A816B8118
:101C00007C818D810E942A05F394EE0CF7E0FF128F
:101C1000E3CFF501319700831F5F183081F652DF63
:101C2000ACCF0813C3CFA8CF1F93CF93DF9320D19E
:101C3000EC01C11580E5D807F0F5C11580E4D8079F
:101C400008F09AC0C03ED10520F5CD3CD10508F082
:101C500082C0C83AD10578F4C53AD10508F073C0FE
:101C6000C130D10519F1209709F1C430D105F0F444
:101C7000D0E0C0E01BC0C33CD105D0F7C85AD0E0CB
:101C8000CC0FDD1FCE54DB4F0990D881C02DD4641A
:101C90000DC0C11580E2D80708F0CDC0C11581E0A4
:101CA000D80708F05AC0C83ED10510F7CE01DF9121
:101CB000CF911F910895C03682E5D80718F5C0343A
:101CC00082E5D80708F068C0C03282E5D80708F07E
:101CD0005CC0C11582E5D80708F493C02C2F269567
:101CE000269580E2289F900111248C2F8370C1E0FB
:101CF000D0E002C0CC0FDD1F8A95E2F7C22BD32BB8
:101D0000DD68D4CFC03A82E5D80760F4C03882E5F8
:101D1000D80708F456C0CF71D0E0DC2FCC27C46FB1
:101D2000D06AC4CFC03C82E5D80708F45FC0C03E8B
:101D300082E5D80708F09CCFDC2FCC27CC27DF71B9
:101D4000C06FD06AB3CFC55AD0E0C851DB4FC8814D
:101D5000D0E0D064ABCFD065A9CF8D2F2BD1182F79
:101D6000CE01992785D0C12FD0E0DC2FCC27CC27FE
:101D7000DF71C82BD92B9ACFCE01992779D0CC27E8
:101D8000DF70C82BD92BD06A91CFCF71D0E0DC2F78
:101D9000CC27C16FD06A8ACF2C2F26952695277025
:101DA00080E2289F900111248C2F8370C1E0D0E045
:101DB00002C0CC0FDD1F8A95E2F7C22BD32BDC6863
:101DC00075CF2C2F26952695277080E2289F9001AD
:101DD00011248C2F8370C1E0D0E002C0CC0FDD1F36
:101DE0008A95E2F7C22BD32BDA6860CF8C2F8F71E4
:101DF000E1D0C82FD0E0DC2FCC27CC27DF71D06218
:101E000055CF8C2F8F71D6D055E0D695C7955A9562
:101E1000E1F7CF70D0E0DC2FCC27282F30E084FF13
:101E200006C044E0220F331F4A95E1F73327C22B47
:101E3000D32BD0693BCF8D2F8F71BCD0182FCE0103
:101E4000992716D0C12FD0E0DC2FCC27CC27DF710B
:101E5000C82BD92BD4CF462F783028F4673018F40C
:101E6000672F0C94C50390E080E00895F4DFDCCE8A
:101E700082389105B9F1B0F48133910509F47DC040
:101E800048F48932910509F46DC08A32910509F44C
:101E90007BC008958533910509F45FC089339105AE
:101EA00009F10895833E9105D9F138F4803E9105FA
:101EB00029F1823E910579F10895863E9105D9F187
:101EC000873E910509F43EC0843E910541F520917D
:101ED000F40521FF24C08091F30584FD19C087EE2D
:101EE00090E008952091F305237009F05AC02091E5
:101EF000F40523FF14C089E290E008952091F305D2
:101F000020FD38C03091F40530FF09C024FF43C0E4
:101F100090E080E008952091F30522FDF7CF089529
:101F20002091F30522FD3AC03091F40530FD39C00F
:101F300024FFF5CFEDCF2091F30523FFF0CF24FD53
:101F4000E7CFCDCF2091F30523FD2EC03091F405CE
:101F500031FFEECF84EE90E008952091F30525FF48
:101F6000DECFC9CF2091F30525FD21C02091F405D6
:101F700023FFD5CF89E390E0D2CF2091F30526FF50
:101F8000CECF8AE290E008952091F30526FFC7CFD7
:101F900081E390E0089583EE90E0089582EE90E072
:101FA000089580EE90E0089586EE90E0089585E330
:101FB00090E008959091F30592FF10C041E0282F22
:101FC0002471243009F040E031E0282F28712830B6
:101FD00009F030E0431711F02CE0822793FF10C086
:101FE00041E0282F2471243109F040E031E0282F0E
:101FF0002871283109F030E0431711F02CE08227D6
:102000003091F40530FF10C051E0282F21712130AC
:1020100009F050E041E0282F2871283009F040E015
:10202000541711F029E0822731FF10C041E0282F1A
:102030002171213109F040E031E0282F2871283149
:1020400009F030E0431711F029E0822794FD877EE4
:1020500008951092F5051092F6051092F70510926A
:10206000F8050895CF92DF92EF92FF926B017C0109
:102070004DD281110EC00E947621C61AD70AE80AF5
:10208000F90AC092F505D092F605E092F705F092B4
:10209000F805FF90EF90DF90CF9008950F931F9376
:1020A00035D2882329F00E9476211F910F9108953F
:1020B0000E9476210091F5051091F6052091F70513
:1020C0003091F805600F711F821F931FEECF80E0E3
:1020D0000895CF939C01205E3245C1E02032310546
:1020E00038F4FB01C581C11103C08F710E943C040B
:1020F0008C2FCF910895089590E080E00E943B2EB0
:1021000021E0833E9E4F09F020E0822F089563EE88
:102110007EEF90E080E00C945A2E6FEF7FEF90E01E
:1021200080E00C945A2ECF93DF93EC0182E090E094
:102130000E94332E8883DF91CF910895FC01608146
:1021400082E090E00C94402E83E090E00E94332ED9
:1021500090E00895682F83E090E00C94402ECF9398
:10216000DF93EC0184E090E00E943B2E998388830A
:10217000DF91CF910895FC016081718184E090E04E
:102180000C945A2ECF93DF93EC0187E090E00E94ED
:10219000332E8883DF91CF910895FC01608187E021
:1021A00090E00C94402EAB01BC018FE090E00C94C9
:1021B000522EAB01BC0183E190E00C94522E682FAB
:1021C0008EE090E00C94402E0895FECF0895E82F05
:1021D000F0E0EE5FF94F80810895089580EA8A95D6
:1021E000F1F7089500C00895F9CF08950895FECF3E
:1021F0000895EF92FF921F93CF93DF9300D000D00A
:10220000CDB7DEB783D1182F60910A06882309F471
:1022100045C019821A821B821C82862F90E09E0183
:102220002F5F3F4F7901B9018E5F994F8DD1882380
:10223000E1F08091F90590E044E050E0B7018E5F55
:10224000994F0E941D2E21E020938B05892BC1F40C
:1022500010E0BBDF812F0F900F900F900F90DF9158
:10226000CF911F91FF90EF90089580918B05882367
:1022700079F384E0F70111928A95E9F710928B05C2
:10228000E091F905F0E0EE5FF94F89819A81AB8129
:10229000BC8180839183A283B383DBCF70E06E5FC8
:1022A000794F8091F90590E08E5F994FD2D19FDFF1
:1022B000D1CFF894E82FE295EF70F0E031A1282F0C
:1022C0002F7081E090E001C0880F2A95EAF7982FDF
:1022D0009095932391A392A1892B82A3789408953A
:1022E000CF93DF9384E9E5DF86E6E3DF87E9E1DF8B
:1022F00086ECDFDFCBEED4E089918F3F09F0D9DFA8
:1023000084E0C23FD807C1F7DF91CF910895B0E0D4
:10231000A0E0EDE8F1E10C94872DEC01D62E062F1C
:1023200010E0C8018E509B4F7C01FC0180818F3FE3
:1023300009F442C0F894E82FE295EF70F0E091A123
:102340008F7021E030E001C0220F8A95EAF7892FD3
:10235000822B81A382A12095282322A3789442DF97
:10236000EBEEF4E042EF54E031E0C12C21912F3F3D
:1023700041F1A22FA295AF70B0E090968C9190E0C1
:102380002F7002C0959587952A95E2F780FD19C0B8
:10239000832FC82A330F4E175F0741F7F70180815B
:1023A0008F3F09F086DF61E0C11001C060E08D2D34
:1023B0001BDFC00FD11FC882CDB7DEB7E8E00C9499
:1023C000A32D80E0E6CF8091AE018091AE0194E034
:1023D000811190E090930A0684E0891B8093F905AF
:1023E0007FDF88E0E2E0F6E0DF01982F1D929A950A
:1023F000E9F7EAEFF5E0DF011D928A95E9F784E05D
:102400003DD00C94DF02A8E0B0E0E9E0F2E10C94EA
:102410008A2D8E010F5F1F4F88E0F80111928A9577
:10242000E9F7F12C6F2DC80172DFF394F4E0FF128D
:10243000F9CF48E050E0B8018AEF95E00E941D2EE8
:1024400021E0009709F420E0892B41F088E0F801B1
:10245000AAEFB5E001900D928A95E1F760910A0626
:1024600070E06E5F794F44E08AEF95E008D0182F56
:10247000C0DE812B2896E5E00C94A62D0895B0E0EF
:10248000A0E0E5E4F2E10C94872D6C017B01042FC0
:10249000C22F222379F081E080938E050E946A2169
:1024A00090938D0580938C0580E0CDB7DEB7E8E092
:1024B0000C94A32DD0918E05DD23B1F380918C0572
:1024C00090918D050E94EB20059770F310E0A80114
:1024D000B601C7010E941D2E892B31F0A801B6015B
:1024E000C7010E942A2ECD2F10928E058C2FDDCF92
:1024F000CF930E94AB29C82F811102C00E94A72947
:102500008C2FCF9108958091920508958091910527
:102510000895FCCF0895ECDF80939105FADF809356
:102520009205F1DF8093AE01F1DF811142C0089581
:10253000EDDF811101C040C0089581E090919305C5
:102540009A3008F080E008950F931F93CF93DF93A4
:10255000EC018B01809193058A30B0F4B801CE0173
:1025600076D0C82F811122C0809193058F3FB9F496
:102570000E946A219093900580938F058C2FDF91A4
:10258000CF911F910F91089580918F0590919005A3
:102590000E94EB20843F914008F7C0E0EFCF8F5FAF
:1025A000809393058A3020F7C1E0E8CF109293051D
:1025B000E5CF0C941A2208950C941D220895B0E0E2
:1025C000A0E0E5EEF2E10C94882D7901C82F880F88
:1025D000DD0B41155105A9F0FE0193E0EE0FFF1F41
:1025E0009A95E1F7E155FE4F818192818C569A4F81
:1025F000208130E04217530708F49A01A9010E9494
:102600002A2ECE010E94FE22D82E8823D1F0011559
:102610001105B9F083E0CC0FDD1F8A95E1F7FE01CB
:10262000E155FE4F438150E00417150708F4A80157
:10263000C155DE4F6C817D816C567A4FC7010E9477
:102640002A2E8D2DCDB7DEB7E7E00C94A42DF0C077
:10265000089503C10895A4E0B0E0E1E3F3E10C9430
:102660008B2D6091A9057091AA058091AB05909181
:10267000AC050E94F42011E06436710581059105D6
:1026800008F10CDD6E5F7F4F8F4F9F4F69837A8318
:102690008B839C8310E000E030E020E044E050E0D9
:1026A000BE016F5F7F4F82E08ADF182F882351F0D1
:1026B0000E9476216093A9057093AA058093AB05CB
:1026C0009093AC05812F2496E4E00C94A72DB0E004
:1026D000A0E0EDE6F3E10C94852D7C015B016A013D
:1026E0002CDF01E010E0882311F00AE010E0C1E0E7
:1026F000D0E0B501C701F6010995811104C021960A
:102700000C171D072CF4CDB7DEB7EAE00C94A12D11
:10271000CC9F9001CD9F300D300D112490E080E0D2
:1027200045E34A95F1F70000019682179307C1F738
:10273000E0CFA5E0B0E0EFE9F3E10C94852D5B017B
:10274000E090F604F090F70401E010E09E012B5FAA
:102750003F4F50E040E070E060E080E030DF182F55
:10276000882309F448C067018FEFC81AD80A60911E
:10277000A5057091A6058091A7059091A8050E94D6
:10278000F420643671058105910570F104E010E0D4
:102790009E012F5F3F4F50E040E070E060E081E03D
:1027A0000EDFF82E64E070E0C601D2D611E09D8104
:1027B000981310E01F2151F10E9476216093A50526
:1027C0007093A6058093A7059093A80589819A81A7
:1027D000AB81BC818093A1059093A205A093A30532
:1027E000B093A40511E012C064E070E0C601B0D659
:1027F0009D818913CBCFF70181819281A381B4811F
:1028000089839A83AB83BC831111E0CF8091A105AA
:102810009091A205A091A305B091A405F501808334
:102820009183A283B383812F2596EAE00C94A12D96
:102830000F931F93CF93DF93EC018B0149E953E191
:1028400046DF882329F04BE253E1B801CE013FDF98
:10285000DF91CF911F910F9108950F931F93CF9305
:10286000DF93C091F604D091F704CE01019624E0E5
:10287000FB01DC0101900D922A95E1F764E070E024
:1028800067D688836D817E818F81988500919D05B3
:1028900010919E0520919F053091A005601771074A
:1028A0008207930749F060939D0570939E0580937E
:1028B0009F059093A005D6DBDF91CF911F910F91DB
:1028C000089551C908950E9404210E948E241AD9A6
:1028D0000E94A62435D90E94AF240E94B224F1DFC1
:1028E0000E94C82419D9F9CF9093F9048093F80471
:1028F00008958554990BBC01990F880B990B0E9480
:10290000B72A20E030E040E451E40E94212A9B01F4
:10291000AC0160E070E080E090E40E94CE2B20E00B
:1029200030E04CED53E40C946B2BFB01803824E732
:10293000920731F48581882371F1DCD480E0089519
:10294000813824E7920729F48581882321F1E3D493
:10295000F5CF823824E7920739F485818823D9F0AE
:102960007CD18111F4CFE9CF843924E7920759F45F
:102970008581882381F0DED540E064E070E087EC5B
:1029800091E0CED1DBCF8539944729F48581882326
:1029900011F0D3D5F1CF81E00895ABDF72C3A9DF89
:1029A00056C25FC10895CF92DF92EF92FF9280915D
:1029B000DF05811176C08091DE05811172C08091A2
:1029C0005F0680FF6EC060910302709104028091E7
:1029D0000502909106029B01AC010E94B9296B018E
:1029E0007C010E940F2EBC01990F880B990B0E944D
:1029F000B72A20E03EEF4FEF56E40E94212A2091B3
:102A0000FF013091000240910102509102020E94A8
:102A10006B2B20E030E040E85FE30E94B929A7017A
:102A200096010E946B2B6093EF017093F0018093ED
:102A3000F1019093F2010E940F2EBC01990F880BB7
:102A4000990B0E94B72A20E03EEF4FEF56E40E9418
:102A5000212A2091FF013091000240910102509102
:102A600002020E946B2B20E030E040E85FE30E940E
:102A7000B92920910302309104024091050250913E
:102A800006020E946B2B6093F7017093F80180930C
:102A9000F9019093FA0140E063E070E087EE91E085
:102AA0003FD1FF90EF90DF90CF900895CF92DF92CB
:102AB000EF92FF9229E038E348E95FE36091030277
:102AC0007091040280910502909106020E946B2B86
:102AD0006B017C0120E030E84BEB54E40E941D2A9E
:102AE00087FF08C0C0920302D0920402E092050260
:102AF000F0920602FF90EF90DF90CF900895CF9272
:102B0000DF92EF92FF9229E038E348E95FE36091BA
:102B100003027091040280910502909106020E94C6
:102B2000212A6B017C0120E030E042E852E40E945F
:102B3000672B181644F4C0920302D0920402E0926C
:102B40000502F0920602FF90EF90DF90CF9008957B
:102B500080E090E0ACEDB3E4809303029093040234
:102B6000A0930502B0930602089590915F06892F05
:102B70008D7F91FF826080935F068FE596E00C94D5
:102B80003A0D80915F06826080935F068FE596E044
:102B90000C943A0D80915F068D7F80935F068FE5E0
:102BA00096E00C943A0D0F931F93CF93DF93EC01B3
:102BB0008B01CA3884E7D80771F4FB018581811144
:102BC000D4DFCE38F4E7DF0731F5F80185818823BB
:102BD00011F195DF20C0CB38F4E7DF0791F0CC3856
:102BE00084E7D807A1F0CF38E4E7DE0741F1CD381C
:102BF00084E7D80731F7F8018581882361F056DF33
:102C00000AC0FB0185818823E1F2BBDFDACFFB013B
:102C100085818111BFDF80915F068370833049F425
:102C2000F8018581882329F0C058D447229708F0FD
:102C3000BADE81E0DF91CF911F910F910895F801E5
:102C40008581882341F384DFE6CFEFE5F6E08081DC
:102C500087608083CF010C943A0D80915F0681706C
:102C6000089580910702811121C01092B805E0D328
:102C70001092B7051092B6051092B4051092B305E4
:102C8000EFE1F6E080E090E0A0E8BFEB1182108277
:102C900082839383A483B58317821682389626E0B5
:102CA000EF35F20799F781E0809307020895CF92FC
:102CB000DF92EF92FF92E091B8058E17E8F4E150B1
:102CC000E81B88E0E802F0011124E15EF94FC280C0
:102CD000D380E480F58020E030E0A901C701B6018F
:102CE0000E941D2A181644F4C701B60129D4FF908A
:102CF000EF90DF90CF90089560E070E0CB01F7CFC8
:102D00009C01A3E5B7E00E946E2D2091400230E0C7
:102D1000220F331F50E040E00E94462DC901089564
:102D2000FF920F931F93CF93DF93EC018B01F42E4F
:102D300080915F0680FD06C094DFCDB7DEB7E5E089
:102D40000C94A62D672BC9F38091AD05811101C0AC
:102D500058D08091B605811184DF81E08093B7055A
:102D60001092B005D0931E06C0931D0610930C065A
:102D700000930B06F09260061092B2051092B10516
:102D80006C817D818E819F810E94892ACB01B8DF71
:102D9000AC01688179818A819B81CBD00E946A21B4
:102DA0009093AF058093AE05E0911D06F0911E064D
:102DB0008091B1059091B20523E0880F991F2A9563
:102DC000E1F7E80FF91F64817581868197810E9480
:102DD000892ACB0195DF9093B4058093B305ADCFDD
:102DE00080915F0680FF06C040E063E070E088E20B
:102DF00092E096DF0E946A219093AF058093AE0522
:102E000008958091AD05811121C08FE596E00E9463
:102E1000380D80915F0682FF18DFEFE1F6E080E079
:102E200090E0A0E8BFEB1182108282839383A48399
:102E3000B58317821682389626E0EF35F20799F7A8
:102E4000EED281E08093AD050CDFCACF0895B0E0EB
:102E5000A0E0EDE2F7E10C94872D6B017C0120E00E
:102E600030E0A9010E941D2A87FF04C0F7FAF09400
:102E7000F7F8F0948091B605882309F455C0809145
:102E8000AD05811101C0BDDF0FE116E0C7E0D0E064
:102E9000A7019601F80162AD73AD84AD95AD0E94B6
:102EA0001D2A81113AC0CE0123E0880F991F2A956F
:102EB000E1F7815E994FF6E087359F0721F5109283
:102EC00058061092570680E090E0A0E8BFEB809390
:102ED000590690935A06A0935B06B0935C06109235
:102EE0005E0610925D06C1E0C093B5058091B805FD
:102EF00081508093B805811117C09AD2C093070200
:102F00001092B60511C028E0FC013896DC01019052
:102F10000D922A95E1F70896CECF21970850110916
:102F2000CF3FDC0709F0B4CFCDB7DEB7E8E00C94B3
:102F3000A32DB0E0A0E0EFE9F7E10C94832D6B0145
:102F40007C018A0180915F0680FF78C08091AD0589
:102F5000811101C056DF20E030E0A901C701B601B0
:102F60000E941D2A87FF04C0F7FAF094F7F8F09446
:102F7000D091B8052D2F2150330B59013FEFA316E7
:102F8000B30609F03FC0DF5FD93008F477C088E0AE
:102F90008093B8058FE196E028E0FC013896DC01CB
:102FA00001900D922A95E1F70896E6E087359E0795
:102FB00099F781E08093B5058093B605C091B80577
:102FC000C150DD0B0E946A21FE0123E0EE0FFF1FBE
:102FD0002A95E1F7E15EF94F91838083C282D38223
:102FE000E482F582178306830E946A219093C305C9
:102FF0008093C20580910702882301F11BD21092B1
:1030000007021CC0C50133E0880F991F3A95E1F70C
:10301000FC01E15EF94F4F01A701960162817381C6
:10302000848195810E941D2A811124C0E401809130
:10303000B8058150990BA816B9062CF0CDB7DEB7AC
:10304000ECE00C949F2DFFEFAF1ABF0A88E0FE0161
:103050003896DE0101900D928A95E1F70E946A216F
:1030600099878887CA86DB86EC86FD861F870E8750
:103070002896DDCF21E0A21AB10880CFD093B80501
:1030800098CF4FEF5FEF55CF8F929F92AF92BF9245
:10309000DF92EF92FF920F931F93CF93DF93809174
:1030A000B605811105C0C091B705CC2309F4ACC0A9
:1030B0000E946A21EC01D090B705D11023C0D12C19
:1030C0008091B605CD2D8823A1F0C091C405C11112
:1030D00005C0C091C505C11101C0CD2D0FE116E09D
:1030E000F12CE12C8091B8058E151F0411F00CF025
:1030F000E4C08091B505882309F486C01092B50517
:10310000C82F82C08091AE059091AF050E94EB2040
:103110002091B3053091B4058217930780F2809116
:10312000AE059091AF050E94EB202091B305309140
:10313000B4057C01E21AF30AD093AF05C093AE0543
:10314000A090B105B090B205C50101969093B2056B
:103150008093B1050E946A219093C3058093C205B4
:1031600000910B0610910C068091B1059091B2056B
:103170008017910748F0C0916006CC2309F443C042
:103180001092B2051092B105C0911D06D0911E0695
:103190008090B1059090B2058091B00533E0880C25
:1031A000991C3A95E1F781113CC0F50123E0EE0F3F
:1031B000FF1F2A95E1F7EC0FFD1FDE01A80DB91DD9
:1031C0002D913D914D915C916081718182819381BE
:1031D0000E941D2A811125C081E08093B00582E004
:1031E00090E08EDDAC0160E070E0CB01A2DEB09239
:1031F000B205A092B10582E090E082DD9093B40523
:103200008093B3055DCF2DDD8C2FDF91CF911F9182
:103210000F91FF90EF90DF90BF90AF909F908F90B5
:1032200008951092B005FE01E80DF91D64817581C5
:10323000868197810E94892ACB0162DD01501109A4
:103240002091B1053091B2058E159F0518F4201715
:103250003107D0F08C010E191F09E816F90610F09D
:1032600001E010E083E0220F331F8A95E1F7C20FDF
:10327000D31F688179818A819B81A8015ADE1093CE
:10328000B4050093B3051CCFE81AF90A2F5F3F4F2E
:103290003093B2052093B10593E0220F331F9A9526
:1032A000E1F7FE01E20FF31F64817581868197814A
:1032B0000E94892ACB0124DDC3CFF8018681978142
:1032C00001978E3F9F4F78F4F8018081918183D7D9
:1032D000F801268137818217930728F06281738174
:1032E00084819581B4DDFFEFEF1AFF0A085F1F4F5D
:1032F000F9CE089580915F06816080935F068FE527
:1033000096E00E943A0DF5DF40E062E070E088E16F
:1033100092E006CD089540E062E070E088E092E03F
:10332000FFDCF8DF2FEF81EE94E0215080409040E9
:10333000E1F700C0000095DC80915F068E7F8093EE
:103340005F068FE596E00C943A0DCF92DF92EF92F4
:10335000FF926B017C0120E030E0A9010E941D2A50
:1033600081110AC0809180008F7380938000FF904C
:10337000EF90DF90CF9008958091800080688093D7
:103380008000C092BD05D092BE05E092BF05F092CC
:10339000C00520E030E040E051E4C701B6010E94E2
:1033A0006B2B9B01AC0160E074E284E79BE40E941C
:1033B000212A6B017C010E94892A70938700609307
:1033C00086006091410270E090E080E00E94B72AA0
:1033D000A70196010E946B2B20E030E048EC52E4FC
:1033E0000E94212A0E94892A709389006093880094
:1033F000BECFEFE6F0E0808182608083E0E8F0E01D
:103400008081806880830895EFE6F0E080818D7F81
:103410008083E0E8F0E080818F7380830895F4DF9B
:10342000259A82E0809380008AE18093810008954C
:10343000EBCF0895DEDF8091B605882319F080E098
:1034400036DC83CF08951F920F920FB60F9211248E
:10345000CF92DF92EF92FF922F933F934F935F9320
:103460006F937F938F939F93AF93BF93EF93FF934C
:103470008091B9059091BA05A091BB05B091BC05AA
:103480000196A11DB11D8093B9059093BA05A09333
:10349000BB05B093BC056091B9057091BA058091E8
:1034A000BB059091BC050E94B52A6B017C0120E010
:1034B00030E040E85CE36091BD057091BE0580910D
:1034C000BF059091C0050E946B2B9B01AC01C70109
:1034D000B6010E941D2A87FD12C01092B9051092F4
:1034E000BA051092BB051092BC05CEDD9091B605D1
:1034F00091111AC09091B705911116C085DFFF9107
:10350000EF91BF91AF919F918F917F916F915F915B
:103510004F913F912F91FF90EF90DF90CF900F90C0
:103520000FBE0F901F901895882349F380E0BFDBF2
:103530000CDFE5CF1092C10508951092C1050895E2
:103540002091C105211102C01092C505089508956A
:10355000FC01680F791F8FEF91E36E177F0709F465
:1035600008952191822728E030E087FF06C0880F68
:10357000892721503109C9F7F0CF880FFACFCF93AF
:10358000DF93EB0186319C4701F50E94250C9D815C
:10359000992391F08A7A91E009F490E09093C6051E
:1035A000811108C089E289D50E94AD0C80E0DF91CD
:1035B000CF91089585E3F7CF8091C605811103C0AF
:1035C00089E281D5F1CF85E3FCCF81E0F0CFCF93C5
:1035D000DF93EC01FB018581882309F4F5C09E018E
:1035E00030572332310508F052C083EF95E00E9436
:1035F000340DFE01E150F047E232F10520F4E855C8
:10360000F14D0C94682D8091F30581608093F30552
:1036100037C08091F40588608093F40531C08091B3
:10362000F3058260F3CF8091F3058460EFCF809142
:10363000F3058860EBCF8091F4058160EDCF809138
:10364000F4058260E9CF8091F3058061DFCF80913E
:10365000F3058062DBCF8091F3058064D7CF0E94B1
:10366000EB078091F3058068D1CF8091F3058C60E2
:103670008093F30540E064E070E082E792E050DB85
:1036800083EF95E00E94360D0E94EB0780E0DF910A
:10369000CF9108958091F40583608093F40540E014
:1036A00064E070E082E492E0EACF8091F3058E7FDF
:1036B000ADCF8091F405877FAFCF8091F3058D7FEB
:1036C000A5CF8091F3058B7FA1CF8091F305877FF4
:1036D0009DCF8091F4058E7F9FCF8091F4058D7FE3
:1036E0009BCF8091F3058F7E91CF8091F3058F7DE5
:1036F0008DCF8091F3058F7B89CF0E94EB0780915E
:10370000F3058F7783CF8091F305837F8093F30553
:1037100040E062E070E082E992E0B1CF8091F40590
:103720008C7F8093F40540E062E070E082E692E0F6
:10373000A6CF8091F30582FB992790F921E092278B
:1037400090FB82F990FB83F98093F30540E083FFBF
:10375000E0CF91CF8091F405982F909591708E7F56
:10376000892B90FB81F98093F40540E081FFDCCF49
:1037700097CF9091F305892F8F7B96FF806446CF7A
:103780000E94EB079091F305892F97FB87F98058EA
:103790003DCF81E00E943C0D73CF80E0FBCF909144
:1037A000F305892F8F7E94FF806130CF9091F305D0
:1037B000892F8E7F90FF816029CF9091F405892F0A
:1037C000877F93FF886028CF81E061CF8091DF05FC
:1037D0008111E7C8089521E08F3F910508F020E0AE
:1037E000822F0895F8CF0895F1DF1092DF0540E0B1
:1037F00068E070E082E293E093CA1092DE0540E058
:1038000068E070E082EA92E08BCAE0DF2091440435
:1038100030E02F5F3F4F237033272093440448E26A
:10382000429FC001439F900D112440E065E070E08D
:103830008E559C4F75CACF938091DB05882309F480
:103840003EC08091C7059091C805009781F542D58B
:103850009093C8058093C705E091C9058091CA057A
:103860008150990BEE2321F02E2F2150330BC901EB
:103870002091DF05222379F0F0E0E553FA4FC08173
:1038800085539A4FFC0180818AD88091DF05882377
:1038900011F08C2F82D88091C90590E0019660913B
:1038A000CA0570E00E94332D8093C90508C093D4E7
:1038B00020914204309143042817390740F2CF91F8
:1038C0000895089581E08093DF0540E068E070E0AE
:1038D00082E693E025DAF5CF089581E08093DE0556
:1038E00040E068E070E082EE92E01ADAF5CFEF9205
:1038F000FF921F93CF93DF93CDB7DEB7A3970FB699
:10390000F894DEBF0FBECDBF7C01803944E7940739
:10391000A1F4DB0115968C91882309F453C0D2DF02
:1039200080E0A3960FB6F894DEBF0FBECDBFDF9147
:10393000CF911F91FF90EF9008958139B4E79B07D5
:1039400039F4FB018581882309F43CC04DDFE8CFC1
:103950008239F4E79F0751F48091DF05DB0115966A
:103960009C91992379F18111F1CFD9CF8115B1E7DC
:103970009B0731F4FB018581882321F1AEDFD0CF95
:103980008130F1E79F0739F4DB0115968C9188238C
:10399000C9F033DFC5CF8230B1E79B0749F4FB01A3
:1039A0008581882379F08091DE058111F2CFE6CF01
:1039B0008339944739F4DB0115968C91882311F0F3
:1039C00024DFAECF2091DF05211105C08091DE05F7
:1039D000882309F4D7C0FB013581332309F44DC096
:1039E000F0EEEF16F10459F4F1DE81E08093DD058D
:1039F0001092DC051092DB051092CA0591CF42EEC1
:103A0000E416F10469F4E2DE8091DD05882319F003
:103A100081E08093DC051092DD051092DB0580CFFC
:103A200083EEE816F10489F48091DC05882329F1FE
:103A3000CDDE1092DD0581E08093DB051092C90593
:103A40001092C8051092C7056BCF92E5E916F104F4
:103A500051F480914204909143040A979093430457
:103A6000809342045DCFA1E5EA16F10431F4809120
:103A70004204909143040A96F1CF8091440410913E
:103A80004704811111C0135080914504180FFB01A8
:103A90008081180F418188E090E0841B9109FCE04F
:103AA0008F9F100D112414C0813069F5105E809134
:103AB0004504180FDB018C91180F11964C9188E08A
:103AC00090E0841B9109982F990F990F890F180F77
:103AD000332309F450C0222319F0812F0E94CD1402
:103AE0008091DD05882351F08091CA05E82FF0E030
:103AF000E553FA4F10838F5F8093CA05C70172DECA
:103B000091E089270ECF823071F4105E80914504D8
:103B1000180FFB018081180F418188E090E0841B21
:103B20009109F7E0BDCF833099F683E2E6E5F4E052
:103B3000DE01119601900D928A95E1F7DB01EC917F
:103B400081E090E08C0F9D1F8E0F911DFC018091F4
:103B5000450490914604E80FF91F13508081180F17
:103B600011964C9188E090E0841B9109ACE08A9F0B
:103B7000100D1124ADCF222309F4C0CF812F0E9454
:103B8000CF14BCCF81E0CDCEDC01ED91FC9111973B
:103B900084913196ED93FC930895B0E0A0E0E3EDBD
:103BA000FDE10C94862DE82FF0E0E252FC4FB4903A
:103BB000282F26952695269530E0F901E258FB4FEF
:103BC0000491877010E0082E02C0159507950A949D
:103BD000E2F701701127F901E259FB4FE490F12C53
:103BE000082E02C0F594E7940A94E2F791E0E922E6
:103BF000FF24F901E25AFB4FC491D0E002C0D595F1
:103C0000C7958A95E2F7C170DD27C62ED12C011524
:103C1000110549F5E114F10431F086EE0E945F05CB
:103C2000C601009771F5B6018B2D0E94C205C60131
:103C3000009779F5E114F104A1F50115110531F0B2
:103C400081EE0E949C05C6010097C9F5CD2B31F08D
:103C50008CE20E94D805C114D104C9F5CDB7DEB7F6
:103C6000E9E00C94A22D81EE0E945F05C601009749
:103C700089F2EFE9FFE03197F1F700C0000001970A
:103C8000F6CFEFE9FFE03197F1F700C000000197B0
:103C9000C8CFEFE9FFE03197F1F700C000000197CE
:103CA000C7CF86EE0E949C05C601009731F2EFE96E
:103CB000FFE03197F1F700C000000197F6CFEFE980
:103CC000FFE03197F1F700C000000197BDCF8FE909
:103CD0009FE00197F1F700C0000091E0C91AD108F8
:103CE000BACFB0E0A0E0E7E7FEE10C94862D8C01AE
:103CF0007B01D42F8AE0B82EC701F80109958823EB
:103D0000A9F0813009F058C0C701F8010995C82F02
:103D1000813089F4C701F80109950E94D8058D2FDB
:103D200090E0009709F040C0C111E6CFCDB7DEB7F3
:103D3000E9E00C94A22D823031F4C701F801099515
:103D40000E945F05ECCF833031F4C701F80109957B
:103D50000E949C05E4CF843011F7C701F801099552
:103D6000C82FD12CC12C2C2F2053330BC9012A3042
:103D7000310568F0C114D10491F28FE99FE00197F9
:103D8000F1F700C0000091E0C91AD108F3CFBC9C44
:103D90009001BD9C300D11246C01C20ED31EC701D1
:103DA000F8010995C82FDFCFEFE9FFE03197F1F770
:103DB00000C000000197B5CF6D2FEFDE9DCFA2E0D0
:103DC000B0E0E5EEFEE10C948D2D462F9A838983B9
:103DD000BE016F5F7F4F84EC9DE183DF2296E2E0BE
:103DE0000C94A92D0F931F93CF93DF93C42FD22F41
:103DF000FC0185818823C1F04093E2056BD290934A
:103E0000E1058093E00580E28C0F883040F4C770B4
:103E100081E001C0880FCA95EAF70E94DF05DF91B3
:103E2000CF911F910F9108951091E205141331C0A5
:103E30008091E0059091E105CED18436910548F559
:103E4000C0E2CD0F1D17B9F080E2810F883040F439
:103E5000177081E001C0880F1A95EAF70E94E40507
:103E6000C83048F481E09D2F977001C0880F9A9563
:103E7000EAF70E94DF05802F0E94D805C83078F647
:103E8000D77081E001C0880FDA95EAF70E94E40557
:103E9000C6CF80E28C0F883010F6C77081E001C079
:103EA000880FCA95EAF7F2CF0F93DB0188519C4740
:103EB0008730910598F5FC01E653F14D0C94682D7F
:103EC00006E221EE41EE6AE17CE7CD018BDF80E086
:103ED0000F91089507E225EE45EE6BE17CE7F5CF03
:103EE00006E221EE40EE68E17CE7EFCF07E225EE47
:103EF00044EE69E17CE7E9CF06E221EE42EE6CE1B7
:103F00007CE7E3CF07E225EE46EE6DE17CE7DDCF0F
:103F100008E221E045EE6EE17CE7D7CF15968C9163
:103F2000882319F01092E205D3CF81E0D1CF90938E
:103F3000E9058093E80508950E948612811103C067
:103F40008091E3050895E091E805F091E905309747
:103F500039F00190F081E02D309711F00995089526
:103F600080E00895E091E805F091E905309731F09F
:103F70000280F381E02D309709F009950895A3E0C0
:103F8000B0E0E5ECFFE10C948D2D2091E605309139
:103F9000E70528173907B1F09093E7058093E60508
:103FA000E091E805F091E905309761F00084F18532
:103FB000E02D309739F023E029839B838A83CE015B
:103FC000019609952396E2E00C94A92DA3E0B0E0B8
:103FD000ECEEFFE10C948D2D2091E4053091E50588
:103FE00028173907B1F09093E5058093E405E09137
:103FF000E805F091E905309761F00084F185E02D46
:10400000309739F024E029839B838A83CE0101967F
:1040100009952396E2E00C94A92D4091AC015091B2
:10402000AD019A012E5F3F4F485F5F4F80E024173C
:10403000350709F40895F90191919F019923B9F386
:104040008F5FF5CF882371F02091AC013091AD01E5
:10405000F9013296285F3F4F9191981729F0E217A6
:10406000F307D1F780E0089581E008959C01FC01F9
:1040700032969FEF80E04191461751F09F3F19F42F
:10408000411101C0982F8F5F8630A9F79F3F09F437
:104090000895290F311D97FD3A95F901628308951E
:1040A000FC01329608962191261303C0DF01119777
:1040B0001C92E817F907B9F70895682F8091AC01B1
:1040C0009091AD01D3CF682F8091AC019091AD015B
:1040D000E7CFE091AC01F091AD01329686E0DF01CF
:1040E0001D928A95E9F708950895FECF08958111EC
:1040F0000CC081E080934B046091480470914904A6
:1041000080914A0490914B04F0CF82E0F3CF83E09A
:1041100080934B04609148047091490480914A0453
:1041200090914B04E2CFE3CF089581E080934B045C
:10413000609148047091490480914A0490914B0425
:10414000D4CFF3CF089591E0811101C090E0909316
:104150004A04609148047091490480914A04909106
:104160004B04C3CF80914A04089580934904609121
:1041700048047091490480914A0490914B04B5CF52
:104180008091490408958093480460914804709197
:10419000490480914A0490914B04A7CF8091480430
:1041A000089508950895FECF089508950895F9CFCC
:1041B0000895CF93FADF0E940312F8DFC0E08C2F3E
:1041C0000E94E710811105C0CF5FC830C1F7CF91C1
:1041D000089581E0FCCFCF93DF93EC017BD08C1B63
:1041E0009D0BDF91CF910895CF92DF92EF92FF92D6
:1041F0006B017C017BD06C197D098E099F09FF90B2
:10420000EF90DF90CF90089585B7806885BF85B720
:10421000806885BF08951F921FB61F9211248F9347
:104220009F93AF93BF938091EA05811113C0809152
:10423000610690916206A0916306B0916406419672
:10424000A11DB11D8093610690936206A093630641
:10425000B0936406BF91AF919F918F911F901FBE45
:104260001F90189580916906843031F10E94F00406
:104270001092EA0588E190E020E40FB6F894A89542
:10428000809360000FBE2093600083B7817F8460BD
:1042900083BF83B7816083BF7894889583B78E7F0F
:1042A00083BF0FB6F894A8958091600088618093D1
:1042B0006000109260000FBE08950E94EB070C94FE
:1042C000F60482E084BD93E095BD9AEF97BD80939C
:1042D0006E0008952FB7F894809161069091620660
:1042E000A0916306B09164062FBF08952FB7F8948C
:1042F00060916106709162068091630690916406F8
:104300002FBF089578941F921FB61F9211248F9388
:104310009F93AF93BF938091610690916206A091A5
:104320006306B09164060196A11DB11D80936106DC
:1043300090936206A0936306B0936406BF91AF9119
:104340009F918F911F901FBE1F90189587E797E749
:10435000909301088093000888E19AE00FB6F894E2
:10436000A895809360000FBE90936000FFCF88E116
:104370009AE00FB6F894A895809360000FBE9093D2
:104380006000FFCF8EE14A9B02C08150E1F74A9B5B
:10439000FECF08955A9880E28A95F1F75A9A0895C7
:1043A000FC013BE03A95F1F798E020E080E031E055
:1043B00040E14A95F1F7880F4A9B02C081602327AC
:1043C00042E04A95F1F7000040E14A95F1F791503B
:1043D00079F790E19A95F1F799B132E03A95F1F7D2
:1043E000000040E14A95F1F792FB992790F9922756
:1043F0002081920F90830895A1E0B0E0E2E0F2E224
:104400000C94892D19828C017C01E60EF11C0E158D
:104410001F0541F481E09981911180E02196E6E049
:104420000C94A52DAFDFCE010196BADFF801819380
:104430008F01EDCF529A5A9A089552985A9AEA9A51
:10444000E9E6F0E080818F7C808308956150770BEE
:1044500091E001C0990F6A95EAF720E031E09111EF
:1044600008C0222391F05A9A80E28A95F1F75A986F
:104470000895492F482339F05A9A232740E24A9554
:10448000F1F79695ECCF5A98F9CF5A98EDCFFF9265
:104490000F931F93CF93DF93EC018C01060F111D37
:1044A000C017D10729F4CDB7DEB7E5E00C94A62DEF
:1044B000F99070DF68E08F2DC9DFF2CF1F920F9265
:1044C0000FB60F9211240F931F932F933F934F9387
:1044D0005F936F937F938F939F93AF93BF93EF936C
:1044E000FF93CF93DF930F92CDB7DEB719824ADFE8
:1044F000CE01019655DF082F069506950695282FC3
:1045000022952570902F9570290F922F93702695E4
:104510002695920F982797708981982B09F058C09B
:10452000043008F055C080E18A95F1F75A9A529A02
:1045300082E08A95F1F700C05A9888E0089F8001D0
:104540001124D801A155BE4F1696ED91FC911797F5
:104550003097A9F06091F6047091F70414962D91AC
:104560003C911597260F371F11968D919C911297AC
:10457000680F791F13964C9113978C910995F80148
:10458000E155FE4F6381662349F02091F604309196
:10459000F70484819581820F931F79DFFBDE80E130
:1045A0008A95F1F75A9852985A9A80E18A95F1F7CC
:1045B000F801E155FE4F6081662349F02091F60431
:1045C0003091F70481819281820F931F15DFDADE2B
:1045D0000F90DF91CF91FF91EF91BF91AF919F919C
:1045E0008F917F916F915F914F913F912F911F918B
:1045F0000F910F900FBE0F901F9018950F931F9360
:10460000CF93DF93EC0104970CF049C0F894529AD1
:104610005A9885E08A95F1F700009C2F9695957041
:104620008C2F8570980F892F83709695969523E02F
:10463000CC0FDD1F2A95E1F7980F8E01092BAADE1A
:1046400000C068E0802F02DF80E18A95F1F7529880
:104650005A9A4A9B1DC087E090E04A991BC0FE0110
:10466000E155FE4F63816623F1F02091F60430910D
:10467000F70484819581820F931FBEDE811113C0E0
:10468000529A5A9A7894DF91CF911F910F91089581
:1046900000C0DFCF019729F4529A5A9A789480E0AB
:1046A000F2CF00C0DACF6EDE80E28A95F1F75A9839
:1046B000529A80E18A95F1F7C155DE4F68816623F1
:1046C00049F02091F6043091F70489819A81820F94
:1046D000931FDDDE5FDE789481E0D5CF08950895E5
:1046E0009B01BA01909169069430E1F48F70809338
:1046F000E9009FEF8091E800915085FD06C085EDAF
:104700008A95F1F700009111F5CF8091E80085FFBF
:1047100009C050E040E0C901B0D18091E8008E7737
:104720008093E800089543E050E0BC0182E0D8CFD8
:10473000CF93DF93EC0116DD48E050E0BE0181E04D
:10474000CFDF88E0FE01ABEEB5E001900D928A95D7
:10475000E1F7DF91CF91089580916806811107C03C
:104760001AD371D38091E20084608093E2000895AF
:10477000109268060895D9DC81E0E5CC6091650669
:1047800081E0611101C080E0C2CC9091690681E0B6
:10479000943009F080E060916506C5CC42E061ECA0
:1047A00081E075D242E261EC82E071D290916906BB
:1047B00081E0943009F080E06091650698CC8091AA
:1047C0006B06833009F45EC030F48130C1F1823071
:1047D00009F494C008958A3009F483C08B3009F439
:1047E0006BC0893009F04DC080916A06813209F0B2
:1047F00048C080916E0690916F06029708F041C004
:104800008091E800877F8093E8008091E80082FF34
:1048100034C09091F3008091F200029731F48091BE
:10482000F100813011F0863019F48091F1009DDCA7
:104830008091E8008B778093E8005DD222C0809160
:104840006A06813AF1F48091E800877F8093E8005E
:1048500080916E0690916F06892B59F468E08BEE7B
:1048600095E070E057D18091E8008B778093E80065
:10487000089560E090E080E0F4CF809169068111B6
:10488000C4CF089580916A06813AD9F780916E0667
:1048900090916F06892BA9F78091E800877F80931C
:1048A000E8008091E80080FFFCCF5CDC8093F100A1
:1048B0008091E8008E77BFCF80916A06813209F738
:1048C00080916E0690916F06892BD9F68091E80051
:1048D000877F8093E8000FD280916C0634DC0C94C3
:1048E000EB0780916A06813261F68091E800877F4C
:1048F0008093E80000D280916D0645CC80916A06D5
:10490000813A09F0BECF8091E800877F8093E8006C
:104910008091E80080FFFCCF41DCC8CF84B7877F5F
:1049200084BF0FB6F894A895809160008861809349
:104930006000109260000FBE80E890E00FB6F8941F
:1049400080936100909361000FBEFBCB24D27BD299
:10495000E2EEF0E08081846080837894DEC48CE4B1
:1049600094E0E5CA80916906853029F48091690652
:10497000853011F0A2CC089575DC1BDC8823B1F3DF
:1049800080916706882391F362D00E94EB07EECFF7
:1049900008959A01409170065091710600C0492F08
:1049A00055274330510519F168F44130510509F498
:1049B00044C04230510509F445C090E080E050E029
:1049C00040E025C04132510549F142325105A9F775
:1049D00084E490E04DE355E061157105C1F082E398
:1049E00090E04BE055E06130710589F0E6CF992702
:1049F0008130910581F0009729F00297F1F6EEE8F9
:104A0000F4E002C0EAEBF4E0849190E0AF01F90138
:104A1000518340830895E4EAF4E0F6CF89E090E022
:104A200040ED54E06115710591F389E090E049EEA5
:104A300054E06130710559F3C0CF82E190E049EF55
:104A400054E0E5CF8BE390E04EEB54E0E0CF80E123
:104A500089BD82E189BD09B400FEFDCF8091D800F7
:104A60008F7D8093D8008091E00082608093E00089
:104A70008091E00081FDFCCF0895AF92BF92CF926C
:104A8000DF92FF920F931F93CF93DF936C01EB01A3
:104A90008A0150D1F82E811123C00115110539F07A
:104AA000F80180819181C81BD90BC80ED91EB12C89
:104AB000A12C2097A9F08091E80085FD21C080916C
:104AC000E8008E778093E80001151105A1F0F80148
:104AD00080819181A80EB91EB182A08285E0F82E56
:104AE0008F2DDF91CF911F910F91FF90DF90CF908D
:104AF000BF90AF9008951ED18823D9F2F82EF0CF41
:104B0000F60181916F018093F1002197FFEFAF1AB9
:104B1000BF0ACFCFFC018091700690917106861775
:104B20009707A0F06115710529F49091E8009E7730
:104B30009093E80090E06115710551F4911108C05F
:104B40008091E80082FF34C080E00895BC01F2CF7C
:104B5000809169068823C1F18530C1F18091E80018
:104B600083FD30C08091E80082FDEACF8091E800AB
:104B700080FFE1CF8091F3002091F200382F611582
:104B8000710519F02830310558F091E028303105D1
:104B900009F090E02091E8002E772093E800CBCF39
:104BA00081918093F100615071092F5F3F4FE7CFF2
:104BB00080916906882341F0853041F08091E800BA
:104BC00083FFBECF81E0089582E0089583E00895D9
:104BD000FC01809170069091710686179707A0F0EE
:104BE0006115710529F48091E8008E778093E800C3
:104BF00090E06115710551F4911108C08091E800B1
:104C000082FF35C080E00895BC01F2CF8091690633
:104C10008823C9F18530C9F18091E80083FD31C056
:104C20008091E80082FDEACF8091E80080FFE1CF2B
:104C30008091F3002091F200382F6115710519F071
:104C40002830310558F091E02830310509F090E026
:104C50008091E8008E778093E800CBCF8491809399
:104C6000F1003196615071092F5F3F4FE6CF80917F
:104C70006906882341F0853041F08091E80083FF88
:104C8000BDCF81E0089582E0089583E00895982FD4
:104C9000973028F08F708093E90081E00895909319
:104CA000E900242F762F50E0981731F07091EC0036
:104CB0002091ED005091F00021FD02C09F5FE8CFF0
:104CC0003091EB003E7F3093EB003091ED003D7F63
:104CD0003093ED003091EB0031603093EB00709336
:104CE000EC002093ED005093F0002091EE0027FDA2
:104CF000E5CF80E0089580916A0687FF13C0809118
:104D0000E80082FF06C08091E8008B778093E8007E
:104D100004C0809169068111F2CF089580916906DF
:104D20008823D9F38091E80080FFF8CF8091E800D4
:104D30008E77ECCF2091E4003091E50095E6A90153
:104D40002091EC00822F817020FF06C08091E80046
:104D500080FF06C080E008952091E80022FD1AC07F
:104D600080916906882389F0853089F08091EB0075
:104D700085FD0FC02091E4003091E50042175307F4
:104D8000F9F29150E1F684E0089582E0089583E01D
:104D9000089581E0089567D06ED0E0EEF0E0808164
:104DA00081608083E8EDF0E080818F77808319BC9B
:104DB000A7EDB0E08C918E7F8C9380818F7E808375
:104DC0001092680608950F931F93CF93DF934BD0F3
:104DD00052D0C8EDD0E088818F7788838881806841
:104DE000888388818F7D888319BC10926906109210
:104DF0006506109267061092660600EE10E0F80154
:104E000080818B7F808388818160888342E060E03D
:104E100080E03DDFE1EEF0E080818E7F8083E2EE96
:104E2000F0E0808181608083808188608083F801E8
:104E300080818E7F8083888180618883DF91CF919C
:104E40001F910F910895E8EDF0E080818F7E8083BF
:104E5000E7EDF0E080818160808384E082BF81E0C3
:104E600080936806B0CFE8EDF0E080818E7F80838C
:104E70001092E20008951092DA001092E100089575
:104E80001F920F920FB60F9211242F933F934F93BF
:104E90005F936F937F938F939F93AF93BF93EF93A2
:104EA000FF938091E10082FF0AC08091E20082FFBF
:104EB00006C08091E1008B7F8093E1002DD280912C
:104EC000DA0080FF18C08091D80080FF14C0809164
:104ED000DA008E7F8093DA008091D90080FF91C044
:104EE00080E189BD82E189BD09B400FEFDCF81E08A
:104EF0008093690631DC8091E10080FF18C08091C9
:104F0000E20080FF14C08091E2008E7F8093E20077
:104F10008091E20080618093E2008091D8008062FD
:104F20008093D80019BC85E08093690627DC8091C6
:104F3000E10084FF2AC08091E20084FF26C080E166
:104F400089BD82E189BD89B5982F917080FFFBCF23
:104F50008091D8008F7D8093D8008091E1008F7E72
:104F60008093E1008091E2008F7E8093E200809147
:104F7000E20081608093E20080916506882309F455
:104F800045C084E08093690600DC8091E10083FFE6
:104F900027C08091E20083FF23C08091E100877FDA
:104FA0008093E10082E0809369061092650680910B
:104FB000E1008E7F8093E1008091E2008E7F8093FC
:104FC000E2008091E20080618093E20042E060E0D4
:104FD00080E05DDE8091F00088608093F000CBDBA4
:104FE000FF91EF91BF91AF919F918F917F916F91C1
:104FF0005F914F913F912F910F900FBE0F901F9097
:10500000189519BC10926906B3DB75CF8091E30047
:1050100087FD93E090936906B7CF1F920F920FB66A
:105020000F9211242F933F934F935F936F937F932E
:105030008F939F93AF93BF93CF93DF93EF93FF93A0
:10504000D091E900DF708091EC00C82FC17080FD25
:10505000C0E81092E9008091F000877F8093F00013
:1050600078941ED01092E9008091F00088608093BF
:10507000F000CD2BCF70C093E900FF91EF91DF914D
:10508000CF91BF91AF919F918F917F916F915F91E0
:105090004F913F912F910F900FBE0F901F90189539
:1050A000AAE2B0E0E5E5F8E237C58AE696E02091AD
:1050B000F100FC012193CF01F6E082379F07B9F799
:1050C0007EDB8091E80083FF16C180916A06909193
:1050D0006B069A3008F00FC1E92FF0E0EF52F14D66
:1050E000F7C4803899F0823809F005C180916E06C6
:1050F0008F70873008F0FFC08093E9008091EB004B
:1051000085FB882780F91092E90006C08091660629
:1051100090916706911182609091E800977F90933B
:10512000E8008093F1001092F1008091E8008E7702
:10513000DFC0882309F4CDC0823009F0DCC0809143
:105140006C068111D0C080916E068F702FEF280FF2
:10515000263008F0D0C08093E9002091EB0020FFBA
:10516000C2C0933031F48091EB0080628093EB00F9
:10517000BAC09091EB0090619093EB0021E030E099
:1051800001C0220F8A95EAF72093EA001092EA0004
:105190008091EB008860EACF8111ADC010916C0660
:1051A0001F778091E3008078812B8093E3008091CA
:1051B000E800877F8093E8009EDD8091E80080FF13
:1051C000FCCF8091E30080688093E30082E01111BE
:1051D00083E0809369068FC08058823008F08BC0CE
:1051E00080916C0690916D068C3D23E0920799F5B5
:1051F00083E08A838AE289834FB7F894DE011396AD
:1052000020E03EE051E2E32FF0E050935700E491BC
:1052100020FF03C0E295EF703F5FEF708E2F90E0AC
:10522000EA30B8F0C7968D939D932F5F243159F7DC
:105230004FBF8091E800877F8093E8006AE270E0CA
:10524000CE01019667DC8091E8008B778093E800BF
:1052500052C0C096E8CF60916E0670916F06AE01A5
:105260004F5F5F4F96DBBC01892B09F444C09091DE
:10527000E800977F9093E80089819A81A9DCE3CFC9
:105280008038C9F58091E800877F8093E80080919D
:1052900065068093F10049CF81112DC090916C0675
:1052A000923048F58091E800877F8093E8009093E2
:1052B000650621DD80916506882311F084E005C034
:1052C0008091E30087FDFACF81E08093690666DA7A
:1052D00012C080916C06813071F481E0933009F046
:1052E00080E0809367061092E9008091E800877F54
:1052F0008093E80000DD8091E80083FF0AC0809180
:10530000E800877F8093E8008091EB0080628093C3
:10531000EB00AA96E3E01CC40895CF938091690640
:10532000882399F0C091E900CF709091EC00892F0B
:10533000817090FD80E8C82B1092E9008091E80010
:1053400083FDAEDECF70C093E900CF91089523DDD9
:10535000109269060895E8EDF0E080818061808315
:105360008AE18A95F1F700C08091D9008170089593
:105370005058BB27AA270ED070C161D130F066D13A
:1053800020F031F49F3F11F41EF456C10EF4E09565
:10539000E7FB4CC1E92F72D180F3BA17620773079C
:1053A0008407950718F071F49EF58AC10EF4E09514
:1053B0000B2EBA2FA02D0B01B90190010C01CA01CF
:1053C000A0011124FF27591B99F0593F50F4503E7A
:1053D00068F11A16F040A22F232F342F4427585F6C
:1053E000F3CF469537952795A795F0405395C9F784
:1053F0007EF41F16BA0B620B730B840BBAF091503C
:10540000A1F0FF0FBB1F661F771F881FC2F70EC0DA
:10541000BA0F621F731F841F48F4879577956795AD
:10542000B795F7959E3F08F0B3CF9395880F08F096
:105430009927EE0F979587950895D4D008F481E0C9
:1054400008950CD00AC102D140F0F9D030F021F417
:105450005F3F19F0EBC0511134C1EEC00FD198F38A
:105460009923C9F35523B1F3951B550BBB27AA27E5
:1054700062177307840738F09F5F5F4F220F331F57
:10548000441FAA1FA9F333D00E2E3AF0E0E830D023
:1054900091505040E695001CCAF729D0FE2F27D026
:1054A000660F771F881FBB1F261737074807AB07F4
:1054B000B0E809F0BB0B802DBF01FF2793585F4F69
:1054C0002AF09E3F510568F0B1C0FBC05F3FECF38E
:1054D000983EDCF3869577956795B795F7959F5F2E
:1054E000C9F7880F911D9695879597F90895E1E082
:1054F000660F771F881FBB1F621773078407BA07E1
:1055000020F0621B730B840BBA0BEE1F88F7E0953B
:105510000895BCD088F09F5790F0B92F9927B751C4
:10552000A0F0D1F0660F771F881F991F1AF0BA9567
:10553000C9F712C0B13081F0C3D0B1E00895C0C046
:10554000672F782F8827B85F39F0B93FCCF386955D
:1055500077956795B395D9F73EF4909580957095BA
:1055600061957F4F8F4F9F4F0895E89409C097FB37
:105570003EF490958095709561957F4F8F4F9F4F2A
:105580009923A9F0F92F96E9BB279395F69587956E
:1055900077956795B795F111F8CFFAF4BB0F11F431
:1055A00060FF1BC06F5F7F4F8F4F9F4F16C08823D8
:1055B00011F096E911C0772321F09EE8872F762F0E
:1055C00005C0662371F096E8862F70E060E02AF04F
:1055D0009A95660F771F881FDAF7880F969587953B
:1055E00097F90895990F0008550FAA0BE0E8FEEF10
:1055F00016161706E807F907C0F012161306E40797
:10560000F50798F0621B730B840B950B39F40A268F
:1056100061F0232B242B252B21F408950A2609F46D
:10562000A140A6958FEF811D811D089597F99F6771
:1056300080E870E060E008959FEF80EC089500241A
:105640000A941616170618060906089500240A94E7
:1056500012161306140605060895092E0394000C6D
:1056600011F4882352F0BB0F40F4BF2B11F460FFFC
:1056700004C06F5F7F4F8F4F9F4F089557FD905825
:10568000440F551F59F05F3F71F04795880F97FB06
:10569000991F61F09F3F79F08795089512161306C0
:1056A0001406551FF2CF4695F1DF08C016161706EF
:1056B0001806991FF1CF8695710561050894089524
:1056C000E894BB2766277727CB0197F908958ADFEF
:1056D00008F48FEF08950BD0C0CFB1DF28F0B6DF0C
:1056E00018F0952309F0A2CFA7CF1124EACFC6DF87
:1056F000A0F3959FD1F3950F50E0551F629FF001E5
:10570000729FBB27F00DB11D639FAA27F00DB11D3D
:10571000AA1F649F6627B00DA11D661F829F2227C6
:10572000B00DA11D621F739FB00DA11D621F839F4D
:10573000A00D611D221F749F3327A00D611D231F23
:10574000849F600D211D822F762F6A2F11249F5771
:1057500050408AF0E1F088234AF0EE0FFF1FBB1F94
:10576000661F771F881F91505040A9F79E3F510533
:1057700070F05CCFA6CF5F3FECF3983EDCF38695EC
:1057800077956795B795F795E7959F5FC1F7FE2BDE
:10579000880F911D9695879597F90895FA01EE0F58
:1057A000FF1F30962105310599F16115710561F4EE
:1057B0008038BFE39B0749F168949038810561F018
:1057C0008038BFEF9B0741F0992342F5FF3FE10589
:1057D0003105210511F1E8940894E795D901AA2330
:1057E00029F4AB2FBE2FF85FD0F310C0FF5F70F429
:1057F000A695E0F7F73950F019F0FF3A38F49F77A3
:105800009F930CD00F9007FC905808953EF014CF52
:1058100060E070E080E89FE308954FE79F775F9333
:105820004F933F932F939ED02F913F914F915F9134
:1058300052DF05C019F40EF0F9CE42CFFDCE26DFBF
:10584000C8F39638C0F707F80F92E8942BE33AEACA
:1058500048EB5FE74EDF0F920F920F924DB75EB7A6
:105860000F92C0D0ECEAF0E016D04F915F91EF912B
:10587000FF91E595EE1FFF1F49F0FE57E0684427B2
:10588000EE0F441FFA95E1F74195550B32D00F907A
:1058900007FE26C00895DF93CF931F930F93FF92C7
:1058A000EF92DF927B018C01689405C0DA2EEF0144
:1058B0001EDFFE01E894A591259135914591559102
:1058C000AEF3EF0167DDFE019701A801DA9479F7E5
:1058D000DF90EF90FF900F911F91CF91DF9108958E
:1058E0009B01AC0160E070E080E89FE3AACD9ECE12
:1058F000ACC0CCDEE8F39923D9F3940F511DBBF370
:105900009150504094F059F0882332F0660F771F81
:10591000881F91505040C1F79E3F510544F7880FB2
:10592000911D9695879597F908955F3FACF0983E45
:105930009CF0BB27869577956795B79508F4B1607D
:105940009395C1F7BB0F58F711F460FFE8CF6F5F75
:105950007F4F8F4F9F4FE3CFB4CE0EF076C06CCE0B
:10596000689464CE93DEC8F39923D1F3C6F3DF9332
:10597000CF931F930F93FF92C92FDD2788232AF01F
:105980002197660F771F881FDAF720E030E040E8A4
:105990005FEB9FE3883920F0803E30F021968F77CF
:1059A000E8DCE4EDF0E003C0E4DCE1E0F1E073DF2B
:1059B0008B01BE01EC01FB2E6F5771097595771FA6
:1059C000880B990BD4DD28E132E741E35FE38FDEFA
:1059D000AF2D9801AE01FF900F911F91CF91DF91F4
:1059E000D9DC3BCEFA01DC01AA0FBB1F9B01AC0145
:1059F000BF5728F422273327442750781FC0B751B8
:105A000088F4AB2F0024469537952795011CA39564
:105A1000D2F3002069F0220F331F441FB395DAF34D
:105A20000DD0A6CC61307105A0E88A07B94630F4E4
:105A30009B01AC016627772788279078309621F064
:105A4000208331834283538308959F3F31F09150E7
:105A500020F4879577956795B795880F911D969552
:105A6000879597F9089597FB072E16F4009406D0B2
:105A700077FD08D079D007FC05D03EF4909581954C
:105A80009F4F0895709561957F4F0895A1E21A2E5A
:105A9000AA1BBB1BFD010DC0AA1FBB1FEE1FFF1FD2
:105AA000A217B307E407F50720F0A21BB30BE40B22
:105AB000F50B661F771F881F991F1A9469F7609569
:105AC0007095809590959B01AC01BD01CF01089523
:105AD000EE0FFF1F0590F491E02D0994A29FB001F5
