:10000000BEC20000D9C20000D7C200000C945F201D
:10001000D3C20000D1C20000CFC20000CDC2000098
:10002000CBC20000C9C200000C9435270C940228F2
:100030000C945222C1C20000BFC20000BDC2000029
:10004000BBC200000C94031BB7C20000B5C2000085
:10005000B3C200000C94F522AFC20000ADC2000094
:10006000ABC20000A9C20000A7C20000A5C20000E8
:10007000A3C20000A1C200009FC200009DC20000F8
:100080009BC2000099C2000097C2000095C2000008
:1000900093C2000091C200008FC200008DC2000018
:1000A0008BC2000089C2000087C20000076342368D
:1000B000B79BD8A71A39685618AEBAAB558C1D3CF9
:1000C000B7CC5763BD6DEDFD753EF6177231BF00BD
:1000D0000000803F08000000BE922449123EABAAF7
:1000E000AA2ABECDCCCC4C3E00000080BEABAAAA52
:1000F000AA3E00000000BF000000803F000000009A
:1001000000084178D3BB4387D1133D190E3CC3BDD2
:100110004282AD2B3E68EC8276BED98FE1A93E4C7F
:1001200080EFFFBE01C4FF7F3F000000000001021E
:10013000E2600103E2000102E2600103E2002B0041
:1001400014001A000800150017000000E000040069
:100150001600070009000A000000E1001D001B0056
:100160000600190005000000B35D2900E200E3006D
:10017000B55DB15D2C002A00130012000C001800C0
:100180001C000000340033000F000E000D000B00B7
:100190000000E500380037003600100011000000B4
:1001A0004F00520051005000B65DB25D28002B0098
:1001B00014001A00090013000A000000E000040007
:1001C00015001600170007000000E1001D001B00CD
:1001D0000600190005000000B35D2900E200E300FD
:1001E000B55DB15D2C002A0033001C0018000F0023
:1001F0000D000000340012000C00080011000B007C
:100200000000280038003700360010000E00000003
:100210004F00520051005000B65DB25D2C002B0023
:1002200034003600370013001C000000E00004001A
:100230001200080018000C000000E1003300140058
:100240000D000E001B000000B35D2900E200E3007A
:10025000B55DB15D2C002A000F00150006000A00F4
:100260000900000038001600110017000B000700FD
:10027000000028001D0019001A00100005000000F1
:100280004F00520051005000B65DB25D2C003502A7
:100290001E021F02200221022202000001003A0079
:1002A0003B003C003D003E000000010040004100DA
:1002B0004200430044000000010001000100010071
:1002C0000100010001004C00270226022502240241
:1002D00023020000310230022F022E022D023F00C5
:1002E000000001004D004A004600010045000000EA
:1002F000AE00A900AA00AB0001000100010035001A
:100300001E001F00200021002200000001003A0012
:100310003B003C003D003E00000001004000410069
:100320004200430044000000010001000100010000
:100330000100010001004C002700260025002400D8
:1003400023000000310030002F002E002D003F0060
:10035000000001004B004E00460001004500000077
:10036000AE00A900AA00AB000100010001000100DD
:10037000005CB75D010001000100000001001D5C90
:100380001E5C285C295C135C00000100205C255C7D
:10039000235C245C01000000010001000100010059
:1003A0000100010001000100010001000100010045
:1003B0000100000001000100B05DAF5DAE5D0A5CB0
:1003C0000000CA5CC85CC65CC35C010001000000A0
:1003D000CB5CC95CC75CC45C01000100010000008B
:1003E0000000000000002A2B280000000000000090
:1003F00000000000000000000029000000002C1E8A
:100400003420212224342627252E362D3738271E46
:100410001F202122232425263333362E37381F046C
:1004200005060708090A0B0C0D0E0F101112131404
:1004300015161718191A1B1C1D2F3130232D3504C2
:1004400005060708090A0B0C0D0E0F1011121314E4
:1004500015161718191A1B1C1D2F3130354C0000AA
:10046000000000000000000000000000000000008C
:10047000000000000000000000000000000000007C
:1004800000007E0F00D4FFFFFFC7000000781403B8
:10049000480065006C006900780050006900630046
:1004A0006F000000140359007500730068006100BC
:1004B0006B006F0062006F00000004030904090272
:1004C0003B00020100A03209040000010301010009
:1004D00009211101000122400007058103080001E4
:1004E000090401000103000000092111010001229B
:1004F0003200070582032000011201000200000003
:10050000086532010002000102000105010980A115
:1005100001850319012AB700150126B70095017559
:10052000108100C0050C0901A101850419012AA050
:1005300002150126A002950175108100C005010970
:1005400006A101050719E029E715002501950875A1
:100550000181029501750881010507190029FF1520
:100560000026FF0095067508810005081901290578
:10057000950575019102950175039101C000112443
:100580001FBECFEFDAE0DEBFCDBF15E0A0E0B1E0E7
:10059000EEE4FDE502C005900D92A832B107D9F74F
:1005A00026E0A8E2B5E001C01D92A23AB207E1F749
:1005B0000E944F150C948F2E23CD0E9456138093CA
:1005C0002A05D1C008950C94F10E0895CF93DF93BE
:1005D000EC010E942D0EBE0190E080E0CCD5DF91B1
:1005E000CF910895CF93DF93D62FC42F25D688239C
:1005F00049F08D2F21D6882329F08C2F3DD6DF910D
:10060000CF9108958C2F59D6FACFCF93FB01813B20
:100610002DE5920709F45BC008F58E3A2DE59207A7
:10062000C9F140F4843C9C4509F441C0C1E08C2FE1
:10063000CF9108958F3A2DE59207D9F1803B9D45E2
:10064000A9F7C281CC2399F340E068E070E084E729
:1006500091E00E946C1784E090E028C0833B2DE578
:10066000920709F45FC008F44CC0853B2DE5920762
:1006700009F460C0863B9D45C9F6C281CC2309F4CC
:1006800070C08091270682FBCC27C0F982FD66C02E
:1006900080E95BC0C281CC2351F240E064E070E0AD
:1006A00084EB91E00E946C1781E090E08FDFC0E066
:1006B000BECFC281CC2309F4BACF40E066E070E03F
:1006C00084E491E00E946C1782E090E0EFCFC28159
:1006D000CC2371F080912B05811103C081E08093C0
:1006E0002B0583E0C9D545E064E083E07BDFDFCF05
:1006F00010922B0583E0E1D545E064E083E072DFF2
:1007000096CFC281CC2349F080912B05811103C083
:1007100081E080932B0584E0E5CF84E0CED5109274
:100720002B05EACFC28185E0CC2311F0A5D5BFCF40
:10073000C4D57DCFC281CC2371F08091270682FB86
:10074000CC27C0F982FD03C081E920D270CF86E3B7
:1007500091E0C2D1ACCF81E958D269CF8EE291E06D
:10076000F8CF80E9F9CF2FEF80E792E02150804069
:100770009040E1F700C0000008952FEF82E597E078
:10078000215080409040E1F700C000000C940A170F
:10079000089540E068E070E084E091E00C946C170C
:1007A0000895F7CF089581E008952FCF0895089513
:1007B000FECF0895A5E0B0E0E0EEF3E00C94812DCB
:1007C00049835A8330912D0589819A81311116C050
:1007D000662389F0222379F063D6182F682F898148
:1007E0009A813CD669817A81812F0E946710259673
:1007F000E3E00C949D2D43D6182FF4CF51D6698198
:100800007A81F3CFFC01262F40815181628173816F
:100810008481D0CF089581E00895CF93DF93EC01D8
:1008200060E0F0DFBE01C4DFDF91CF910895C5CE57
:1008300008950C94C0110895CF93DF9355D40E946E
:10084000871B0E94B222EC0140E063E070E084ED7F
:1008500091E00E946C1791DFCE010E94CA228A3F6C
:10086000910528F00E940A17DF91CF9108958FE932
:100870009FE00197F1F700C00000EECFDDDF0C94A0
:1008800019230895D9DF0C942A2308950F931F93F9
:10089000CF93DF938C0161E0B5DFEC01B8010E94DA
:1008A000B416811106C080E0DF91CF911F910F91A6
:1008B0000895B801CE0179DF8823A9F3B801CE01EC
:1008C0000E947515882379F3B801CE010E941D1C82
:1008D000882349F3B801CE010E94721F882319F3BF
:1008E000B801CE010E94801D8823E9F2B801CE0133
:1008F0000E94E61E8823B9F2F8018281882361F004
:10090000CB35FDE5DF07E9F050F4C115ECE5DE0776
:1009100081F0CF3DDC4579F0C80145DFC5CFCD354D
:100920008DE5D80759F080F0C83ADD45A9F7AADF70
:10093000BACFA4DFB8CF0E94D20EF9CF0E94090E21
:10094000EBCF0E94120EE8CF0E94150EE5CF0E9459
:100950003322D4D00C940A170895D3D00C943722A4
:100960000895B0E0A0E0E7EBF4E00C947D2DE82FD3
:10097000F0E0E252FC4FD490282F2695269526953C
:1009800030E0F901E258FB4F0491877010E0082E27
:1009900002C0159507950A94E2F701701127F90135
:1009A000E259FB4FE490F12C082E02C0F594E79435
:1009B0000A94E2F791E0E922FF24F901E25AFB4FA1
:1009C000C491D0E002C0D595C7958A95E2F7C17071
:1009D000DD270115110511F081EED8D0E114F104E5
:1009E00011F086EED3D08D2D4DD1E114F10411F02C
:1009F00086EE0BD10115110511F081EE06D1CD2B3C
:100A000011F08CE23FD1CDB7DEB7E7E00C94992D21
:100A1000EF92FF920F931F93CF93DF938C01F62EEB
:100A20008AE0E82EF8018491882309F450C08130CF
:100A300009F04AC0E8012196FE018491813089F4D1
:100A40002196FE0184911ED18E010F5F1F4F8F2DC5
:100A5000815040F3EFE9FFE03197F1F700C000006B
:100A6000F7CF823031F4E8012296FE0184918ED0D6
:100A7000EBCF833031F4E8012296FE018491C5D09A
:100A8000E3CF843009F7E8012296FE01249190E03B
:100A900080E0FE0131962053330B2A30310548F0B7
:100AA000019790F2EFE9FFE03197F1F700C0000005
:100AB000F7CFE89EA001E99E500D1124C901840FD3
:100AC000951F2491EF01E5CF4CDFE801BDCFCDB7F5
:100AD000DEB7E6E00C949A2D60E09ACF0895089571
:100AE000FECF089581E00895FDCF08950895CF9336
:100AF000C82FF6DF8C2FF8DFCF91089580E0F7CF75
:100B000008950E947921F3CF08950E947921909150
:100B10002C05981719F080932C05E9CF0895ABE0C8
:100B2000B0E0E5E9F5E00C94822D4F8358876987A2
:100B30007A878B876111C5D71E821D8285E0FE01F1
:100B40003796DE01119601900D928A95E1F78C811E
:100B50009D81892B59F449815A816B817C818D81DA
:100B60009E81DED62B96E2E00C949E2D89819A819F
:100B700089238F3F81F3CE0101964DDE8111EBCFAA
:100B8000F1CFFC0180819181C4C40895CF93C82F17
:100B9000882399F08CEF8C0F813A88F46C2F809128
:100BA000EC019091ED010E94D621882319F08C2F41
:100BB00048D7A5D78C2F3DD7A2D7CF91089580E2F3
:100BC0008C0F883040F4C77081E001C0880FCA954F
:100BD000EAF75AD7F1CFEBE5EC0FE33040F4F0E061
:100BE000EA51FB4F808190E00E949821E6CFC85ADD
:100BF000C73118F7EC2FF0E0EE0FFF1FE854FB4F62
:100C0000808191810E94AE21D8CF882321F19CEF71
:100C1000980F913A18F415D772C7089590E2980F7B
:100C2000983048F4877091E001C0990F8A95EAF7EF
:100C3000892F30D7F1CF9BE5980F933028F490E0BF
:100C400080E00C9498210895885A873120F490E030
:100C500080E00C94AE2108951F93CF93DF93182F5B
:100C6000EB0194DF209731F4812FCFDFDF91CF911B
:100C70001F9108958FE99FE00197F1F700C00000F0
:100C80002197F0CF70E060E0893311F460E570E007
:100C9000E3CF0895882311F0F7D631C7089588234C
:100CA00011F0F8D62CC70895B0E0A0E0EAE5F6E030
:100CB0000C947B2D6C01D62FC72FFC011281F5807F
:100CC000F2949FE0F922D6D6E82E8823A9F0E12EEF
:100CD000112391F08C2F807F803421F080E28D0FE2
:100CE0008830C0F08091280682FF14C082E064D76B
:100CF000C1D691E0E82EE926BC2EB2948FE0B8224E
:100D0000FBE0FB1508F45DC0EB2DF0E0EF56F14D74
:100D10000C945D2DE12CF0CF0C2F0F70C07F11F0E3
:100D20000295007F112381F0002349F080E28D0FAE
:100D3000883010F0D11105C0802FA6D6E0D68D2FB7
:100D40003AC0802FB1D6FACF8D2F5FDF002309F490
:100D500038C080E28D0F883010F0D11103C0802F91
:100D600099D602C0802FA6D6CAD62BC00C2F0F70E2
:100D7000C07FC03211F00295007FDD2381F0D130B9
:100D800009F452C0112309F45CC0FF2009F452C0D9
:100D9000F601858180FFD3CF8F7085834BC0809112
:100DA000280682FD28C0112341F0002319F0802F6E
:100DB0006BD6A5D680E0EADE04C080E026DF011114
:100DC000CECFEB2DE850FF0B349718F40E94792119
:100DD0008EDEEE2059F04AD680FD08C0F601128260
:100DE0003FD64AD2C6014DD13BD667D2CDB7DEB78A
:100DF000E9E00C94972D112369F0F11004C064D63A
:100E0000802B48DFDECF21E0F212F9CF5DD6802BB8
:100E100061D6D7CFF11004C069D6802F40DFD1CF83
:100E200031E0F31671F2F8CF112331F085E08F1520
:100E300008F4C7CF802FE5CF94E09F1508F4C1CF09
:100E4000ECCFFF2051F3D93349F4FFEF27EE33E025
:100E5000F15020403040E1F700C000008D2FD5DE7A
:100E6000B0CF8C2F86958695837069F0813009F01C
:100E7000A8CF8D2F9C2F9370111102C090E080E0BD
:100E80000E94AE219ECF8D2F9C2F9370111102C016
:100E900090E080E00E94982194CF8C2F837009F01D
:100EA0003DC011118ECF4D2F429546954770440F8E
:100EB000440F0D2F0F7010E030E020E0042E04C02E
:100EC000000F111F221F331F0A94D2F760E070E059
:100ED000CB01D4FF0FC06FE070E080E090E004C071
:100EE000660F771F881F991F4A95D2F760957095F6
:100EF00080959095C695C695C370602B712B822BFB
:100F0000932BC23039F040F4C13011F048D159CFA1
:100F100034D157CF56D155CF2ED153CF86951123EB
:100F200011F08C2F8170882309F44BCF4D2F4295FF
:100F300046954770440F440F0D2F0F7010E030E0BE
:100F400020E0042E04C0000F111F221F331F0A943B
:100F5000D2F760E070E0CB01D4FF0FC06FE070E02B
:100F600080E090E004C0660F771F881F991F4A95A4
:100F7000D2F76095709580959095C695C695C3708B
:100F8000602B712B822B932BC23039F040F4C1308F
:100F900011F0E9D116CFD5D114CFF7D112CF27D187
:100FA00010CFCF70112321F08C2F66D18D2F29CF38
:100FB0008D2F75DE8C2F81D104CFD23F49F160F4A3
:100FC000D03FB9F0D13F81F0112309F441C0F110B5
:100FD000B6CE8C2F8F7120C0D33F01F1D43FA1F743
:100FE0008091280682FD22C08C2F8F71112319F366
:100FF00013C0112341F084E08F1508F4E2CE8C2F4A
:101000008F717ED1DECE95E09F1508F4DACEF7CF52
:101010008C2F8F711111CFCF2FD1D3CE112321F06F
:101020008C2F8F7114D1CDCEEDD0CBCE112339F0D2
:10103000CF718C2F21D163E08C2FA4D5C2CE81E05B
:10104000BBD5E1E0EF1508F0BCCE82E0B5D5B9CE56
:10105000F110F9CE8C2F8F71AECF0F931F93CF93DA
:10106000DF93EC01688179818A815CD28C019FD108
:1010700081D0B801CE0118DEDF91CF911F910F9181
:101080000895CF93DF93EC018B819C81892B29F00C
:101090008881998189238F3F41F4DF91CF91089511
:1010A000CE01DBDFCE01B9DBF8CFCE01EFDB811162
:1010B000F7CFE0D4882389F38A81882371F3809164
:1010C000280682FFEACF82E077D5E7CF90E080E084
:1010D0000E94982190E080E00E94AE21F2D40FC5DA
:1010E0000895B7D4F3CF0895DCD4FBCF089592953B
:1010F0009F70963091F058F4925F9F70923058F440
:10110000803F19F030F4883E30F481E008959A5F12
:10111000F4CF843FD1F380E00895883EB0F3813F5F
:10112000D1F7F3CFFC0180819181F3D1E0CF089515
:10113000A5E0B0E0EEE9F8E00C94822D2596E2E01F
:101140000C949E2DA6E0B0E0E8EAF8E00C94822D25
:101150002696E2E00C949E2D0895FECF0895FDDFC3
:1011600060935505709356058093570590935805E5
:10117000ADCF08950895F3CF08950F931F93009175
:101180005505109156052091570530915805602B53
:10119000712B822B932BE3DF1F910F9108950F93F7
:1011A0001F930091550510915605209157053091D8
:1011B00058056023712382239323D1DF1F910F9160
:1011C00008950F931F930091550510915605209196
:1011D0005705309158056027712782279327BFDF75
:1011E0001F910F910895B8CF0895FDCF0895FDDFA9
:1011F0006093510570935205809353059093540565
:1012000065CF089560E070E0CB01F1CF08956115DE
:1012100071058105910529F481E0442361F080E0A6
:101220000895DC01CB0104C0B695A79597958795E5
:101230004A95D2F781700895482F609151057091B9
:1012400052058091530590915405E1CF08950F9375
:101250001F9341E050E060E070E08A019B0104C010
:10126000000F111F221F331F8A95D2F7C901B80141
:10127000BEDF1F910F9108950F931F9341E050E03F
:1012800060E070E004C0440F551F661F771F8A9509
:10129000D2F78091510590915205A0915305B091DC
:1012A00054058A019B01082B192B2A2B3B2BC901C2
:1012B000B8019DDF1F910F9108950F931F9341E097
:1012C00050E060E070E004C0440F551F661F771FB8
:1012D0008A95D2F7CB01BA0160957095809590956B
:1012E00000915105109152052091530530915405FC
:1012F00060237123822393237ADF1F910F91089536
:101300000F931F9341E050E060E070E004C0440F91
:10131000551F661F771F8A95D2F7809151059091CE
:101320005205A0915305B09154058A019B010827ED
:1013300019272A273B27C901B80159DF1F910F91AF
:1013400008950F931F93009151051091520520911C
:10135000530530915405602B712B822B932B47DF63
:101360001F910F9108950F931F93009151051091B4
:101370005205209153053091540560237123822337
:10138000932335DF1F910F9108950F931F930091C1
:101390005105109152052091530530915405602755
:1013A00071278227932723DF1F910F9108950895B6
:1013B000262F277091E001C0990F2A95EAF723E0C4
:1013C000769567952A95E1F725E0269FF001279FFE
:1013D000F00D1124E40FF51F50E040E0682F70E09D
:1013E0008191DF0111979B01042E02C0369527954C
:1013F0000A94E2F7217021952827292328272C9386
:101400004F5F5F4F4530510559F70895A82FA770DA
:1014100023E0969587952A95E1F725E0289FF0012E
:10142000299FF00D1124E60FF71F50E040E080E007
:10143000219130E00A2E02C0369527950A94E2F7F2
:1014400021703327042E01C0220F0A94EAF7822B61
:101450004F5F5F4F4530510559F70895262F98305B
:1014600068F4873058F4682F70E087E0989F600D2B
:10147000711D11244EE255E0822F9ACF0895292F35
:10148000983060F4873050F490E06EE275E037E019
:10149000239F800D911D1124B9CF089580E00895F8
:1014A000B0E0A0E0E6E5FAE00C947B2D8C01C09062
:1014B0005105D0905205E0905305F090540580916D
:1014C000550590915605A0915705B0915805C82A29
:1014D000D92AEA2AFB2ACFE1D0E0BC2ED701C601E7
:1014E0000C2E04C0B695A795979587950A94D2F7C8
:1014F00080FD09C0219788F7B12C8B2DCDB7DEB7C1
:10150000E9E00C94972DB8018C2FFCD5019791F34D
:10151000F4CFCF93DF93EC01C3DFBE01F3D5DF91AE
:10152000CF9108951F93CF93DF93EB0190912D05F9
:10153000992331F0CB01EDDFDF91CF911F91089519
:10154000882351F0CB01ACDF182F682FCE0186DF46
:10155000BE01812FD7D5F0CFCB0191DF182FF8CF67
:101560001F93CF93DF93C091590516E080915A05E0
:101570008C1304C0DF91CF911F910895D0E01C9F80
:10158000F0011D9FF00D1124E55AFA4F4081518161
:101590006281738184819581D5DD2196C770E6CF04
:1015A00040918B0550918C0560918D0570918E0551
:1015B00080918F0590919005C5CD08951F93CF938D
:1015C000DF9380919005807F09F047C080918D0561
:1015D000882309F442C080915905C0915A05609151
:1015E0008B0570918C05A0918E05B0918F05D62F3B
:1015F000D72316E0C81789F190E0109711F0DF3F6C
:1016000019F401968770F6CF189F9001199F300D3D
:101610001124F901E55AFA4F41814713F2CF408175
:101620004613EFCF42814111ECCF438154814A1BD5
:101630005B0B4436510528F7809190058F708061CF
:1016400080939005F901E05AFA4F80818F70806194
:1016500080838BE895E015DD83DFDF91CF911F91CB
:101660000895A1E1B0E0E7E3FBE00C947A2D8C0152
:1016700085E0F801DE011D9601900D928A95E1F753
:10168000F801E2808BE8C82E85E0D82E60918E05A7
:1016900070918F056115710509F429C190918B0531
:1016A00020918C05892F82238F3F09F420C140812E
:1016B0005181A380B480F0908D05F501E61BF70BF6
:1016C000FF2009F4E8C080919005382F307FE43680
:1016D000F10508F0A6C0311169C0FE2C251314C015
:1016E000941312C0E11010C08F7080618093900538
:1016F00057DFC601C6DC80919005F80185838F2DE8
:101700006196EAE00C94962DA114B10429F0842F7F
:1017100085238F3F09F001C180E0F82FF170DF2EA3
:1017200080FF3AC08091590520915A0536E0821316
:1017300014C04D875E878D859E85EBDE292F22950F
:101740002F702230F0F0243018F59F70F1F0F8017E
:101750009581907FD1F4D12C1DC090E0389FF0018D
:10176000399FF00D1124E55AFA4F6181651306C0C7
:101770006081641303C06281E6120EC00196877017
:10178000D6CF9F7011F0882331F3805E883018F334
:10179000C80177DCFD2CB3CFEE2009F4B0CF8091E7
:1017A0009005816080939005F12CA9CF251312C07C
:1017B000941310C0E1100EC0F8018583C80161DCEC
:1017C00086E0F801ABE8B5E001900D928A95E1F76B
:1017D000E7DE95CFC801A6DC882301F1EE20F1F009
:1017E00080919005803268F020918B0530918C05B6
:1017F00038872F831986BB86AA868C87CE010796E9
:1018000040DC86E0F801ABE8B5E001900D928A95E6
:10181000E1F7D4DEC5DEFF24F39471CFC80131DCDB
:10182000FACF311110C07A2DB98AA88A6E2D898914
:101830007FDC8BE895E025DC86E0F60111928A9545
:10184000E9F7AEDEB1CF25130EC094130CC0E11042
:101850000AC0F8018583C80114DC86E0F601119204
:101860008A95E9F74CCFC8015DDC8823B9F2EE20F8
:10187000A9F280919005803208F4C3CF20918B05A6
:1018800030918C053A8329831B82BD82AC828E8382
:10189000CE010196B5CFE436F105E8F4FE2CEE203A
:1018A00009F4BCCF25130BC0941309C086E0F801DE
:1018B000ABE8B5E001900D928A95E1F720CFC80121
:1018C00031DC81119ECF80919005816080939005DD
:1018D000C801D7DB14CF7A2DB98AA88A6E2D8989E1
:1018E00027DC86E0F60111928A95E9F771CFEE20A8
:1018F00009F494CFC80116DCF82E882309F48ECFA2
:1019000086E0F801ABE8B5E001900D928A95E1F729
:101910008BE895E036D952DE5BCF81E08E25FDCE97
:10192000ACE0B0E0E6E9FCE00C94812D4F835887F1
:1019300069877A878B879C87CE01079692DE8823FA
:1019400069F08A859B85892B39F04F815885842FD2
:1019500085238F3F09F067C016E05BC086E0FE017B
:101960003796DE01119601900D928A95E1F78A85EE
:101970009B85892B89F38F81988589238F3F61F31C
:1019800020915A0530E0C90101968770992740914E
:1019900059054817190669F4A7DB10925A051092E9
:1019A000590586E0EBE8F5E0DF011D928A95E9F73D
:1019B000D3CF96E0929FD001939FB00D1124A55AEA
:1019C000BA4FFE01319601900D929A95E1F78093FE
:1019D0005A05C6DDC1CF819FC0011124855A9A4F97
:1019E00040DE8823E1F0E09159051E9FF0011124AB
:1019F000E55AFA4F408151816281738184819581DA
:101A0000A1DB8091590590E001968770992780931A
:101A100059058091590590915A058913DCCF2C9670
:101A2000E3E00C949D2D69857A858B859C858ADB06
:101A300093CF682F8091EC019091ED010C940C22D2
:101A40000895682F8091EC019091ED010C940E2285
:101A500008958091EC019091ED010C94102208956D
:101A6000809199058595859585950895809199052D
:101A70008770089590919905977081E009F480E04E
:101A800008958091A40508959091A405892B8093D1
:101A9000A405089580959091A40598239093A4059A
:101AA00008951092A40508959091A305892B809321
:101AB000A305089580959091A30598239093A3057D
:101AC00008951092A305089580919A0508950895A8
:101AD000FECF08959091280692FF07C090919A0535
:101AE000981719F080939A05F3CF089580919A057D
:101AF000882321F010929A0580E0EACF0895CF93D1
:101B0000DF93E091EC01F091ED018091A4058083D9
:101B1000E091EC01F091ED0180819091A305892B7A
:101B2000808390919A05992379F0E091EC01F091EE
:101B3000ED018081892B80838091EC019091ED01F2
:101B40000E94C4218111D2DFC091EC01D091ED013E
:101B500048E050E061E975E0CE010E94122E892B29
:101B600059F088E0FE01A1E9B5E001900D928A9557
:101B7000E1F7CE010E948D21DF91CF910895089564
:101B8000FECF08959091280692FF0FC098E0899F9C
:101B900090011124622B609399056EDB8091990569
:101BA000859585958595ECCF089566CB089510921F
:101BB000990580E0E5CF0895909199058095892356
:101BC00080939905282F277081F4282F082E000C68
:101BD000330B9217130649F09091280692FF05C027
:101BE00085958595859569DBE2CF089590912806C6
:101BF00092FB222720F9281759F080FB92F9909345
:101C0000280680912706909128063BD082E0D4CF09
:101C100008958091280682FB882780F991E0892722
:101C2000E5CF089581E0E2CF089580E0DFCF089509
:101C300090E080E00E94302E21E0883E9E4F09F027
:101C400020E0822F089582E090E00C94282E0895E1
:101C500083E090E00C94282E0895682F83E090E0B4
:101C60000C94352E0895CF9384E090E00E94282EA6
:101C7000C82F82E290E00E94282E982F8C2FCF91BF
:101C80000895CF93C92F682F84E090E00E94352EED
:101C90006C2F82E290E00E94352ECF91089587E06C
:101CA00090E00C94282E0895682F87E090E00C9423
:101CB000352E0895AB01BC018FE090E00C94472EC7
:101CC0000895AB01BC0183E190E00C94472E089588
:101CD00060E070E0CB01F5CF089560E070E0CB01EB
:101CE000E9DFF6CF089568EE7EEF90E080E00E9495
:101CF0004F2E60E082E090E00E94352E60E083E0AD
:101D000090E00E94352E10925505109256051092C3
:101D100057051092580560E084E090E00E94352E4F
:101D200064E082E290E00E94352E60E085E090E081
:101D30000E94352E60E086E090E00E94352E6FEF25
:101D400087E090E00E94352E40E050E0BA0188E044
:101D500090E00E94472E60E08DE090E00E94352EDA
:101D600040E050E0BA0188E190E00E94472E60E038
:101D700087E190E00E94352E40E050E0BA018CE10E
:101D800090E00E94472E70E060E080E290E00E94C8
:101D90004F2E40E050E0BA0188E190E00E94472ECB
:101DA0009CCF0895A0CF0895682F8EE090E00C940A
:101DB000352E08950E94BE226093B1057093B2053E
:101DC0008093B3059093B4056093AD057093AE0511
:101DD0008093AF059093B005089508950895FECFC0
:101DE000089508958DE991E10E946F21F6DFF7CF04
:101DF00008955CC4089508950895FDDFFDCF08950A
:101E00009FD20E9476050C94DC1708950E94A922A7
:101E100056D266D4B4D3F4DF0E94681D68D40C9403
:101E2000E3020895AAE0B0E0E8E1FFE00C94792D28
:101E3000C7D3C82E8111BEDF85EAA82E85E0B82E53
:101E400010E000E0902E802F9DD2E82EF501F19059
:101E50005F01F816A9F18091B50581FD99D28F2D0A
:101E60008E25D12CFF24F394982F9F2121F1C1DFDF
:101E7000882399F0DE829F82EF2081E009F480E0E0
:101E800088870E94B2228160782F9A8789874E8145
:101E90005F8168858A850E948F05F801EB55FA4FAE
:101EA0008081F826F08281E0C11001C080E02A968E
:101EB000EBE00C94952DD394FF0CF7E0DF12D4CF18
:101EC0000F5F1F4F0830110509F0BCCF8FEF8983DA
:101ED0008A831B820E94B2228160782F9D838C832B
:101EE00049815A816B818D810E948F05DCCFDED3C1
:101EF00081110C94BF1B089595DFF9DF0C948505C3
:101F00000895CF93DF9301D1EC01811522E592076B
:101F1000E8F5811531E5930708F0ABC0883E9105DF
:101F200010F5803E910570F5883A910570F4853A78
:101F3000910508F077C08130910521F1009711F1EA
:101F4000049700F5D0E0C0E01DC08F3B9105D0F7AD
:101F5000C85AD0E0CC0FDD1FC751DB4F0990D881A4
:101F6000C02DD4640FC0811540E5940708F065C00A
:101F7000C11580E4D80708F05DC0CE019A9581159F
:101F80009F4100F7CE01DF91CF910895811536E58D
:101F9000930718F5811545E5940708F082C0C1152F
:101FA00084E5D80708F078C09C2F969596959E01F9
:101FB00023703327C115D34508F460C0C1E0D0E0D9
:101FC00002C0CC0FDD1F2A95E2F730E2939FC001DB
:101FD0001124C82BD92BDA68D5CFC1158AE5D807CB
:101FE00078F4C11599E5D90708F064C0C11528E552
:101FF000D20708F4A7CFDC2FCC27C06FD06AC2CF9E
:10200000CE0190568115904208F09CCF8D2F8F7194
:1020100013D190E0982F882788279F719C012C2B43
:10202000E90146C0C55AD0E0C95EDA4FC881D0E0A8
:10203000D064A8CFDF70D06AA5CFE4E096958795ED
:10204000EA95E1F783702C2F26952695237040E2C0
:10205000249F90011124382B8C2F8370C1E0D0E095
:1020600002C0CC0FDD1F8A95E2F7C22BD32BDC68B0
:1020700089CFD82FCC27C16FD06A84CFC1E0D0E000
:1020800002C0CC0FDD1F2A95E2F720E2929FC0012B
:102090001124C82BD92BEBCFDC2FCC27C46FD06AEF
:1020A00071CFCAD0C82FD0E0DC2FCC27CC27DF716E
:1020B000D06268CF8C2F8F70BFD034E0D695C79593
:1020C0003A95E1F7CF709C2FEC01D0695BCF972F49
:1020D0007830A8F4673098F470E027E0929F600DA4
:1020E000711D1124FB0198E3899FE00DF11D11245E
:1020F000EE0FFF1FE25CFE4F85919491089580E002
:1021000090E00895E4DFFDCE089582389105B1F1A5
:10211000B0F48133910509F475C048F48932910512
:1021200009F469C08A32910509F473C008958533B2
:10213000910509F459C08933910501F10895833E51
:102140009105A9F138F4803E9105F9F0823E9105A0
:1021500049F10895863E9105A9F1873E9105C9F19F
:10216000843E910519F52091280621FF1FC080911A
:10217000270684FD14C087EE90E00895209127067D
:102180002370A1F080EE90E008952091270620FDB5
:1021900047C03091280630FF09C024FF44C090E0BA
:1021A00080E004C02091270622FDF7CF08952091FA
:1021B000270622FD3BC03091280630FDE3CF24FFE7
:1021C000F5CFEDCF2091270623FFF0CF24FDE7CFF9
:1021D000D2CF2091270623FD2CC03091280631FF55
:1021E000EECF84EE90E008952091270625FFDECF04
:1021F00089E290E008952091270625FFD7CF85E357
:1022000090E008952091270626FFD0CF8AE290E043
:1022100008952091270626FFC9CF81E390E0089515
:1022200089E390E0089583EE90E0089582EE90E0D7
:10223000089586EE90E008959091270692FF06C0DB
:10224000282F28712830F9F4877F846093FF06C017
:10225000282F28712831F1F4877E84612091280687
:1022600020FF06C0382F38713830D9F4877F81605D
:1022700021FF06C0282F28712831D1F4877E816183
:1022800094FD877E0895282F24712430F9F68B7FE2
:102290008860DCCF282F2471243101F78B7E886180
:1022A000DDCF382F3171313019F78E7F8860E0CF64
:1022B000282F2171213121F78E7E8861E1CF109284
:1022C00023061092240610922506109226060895E1
:1022D000CF92DF92EF92FF926B017C01E7D18111E7
:1022E0000EC00E94BE22C61AD70AE80AF90AC09296
:1022F0002306D0922406E0922506F0922606FF904F
:10230000EF90DF90CF9008950F931F93CFD1882344
:1023100029F00E94BE221F910F9108950E94BE22B3
:10232000009123061091240620912506309126065F
:10233000600F711F821F931FEECF80E008950895F4
:1023400077DC811101C02EDD7EDC8093B5058BDC4E
:102350009093280680932706F2DF7ADC682F70E0DE
:1023600090E080E00E94BB08609151057091520599
:1023700080915305909154050C94F50808950895A3
:10238000FECF0895E82FF0E0EE5CF94F80810895CC
:10239000089580EA8A95F1F7089500C00895F9CF6D
:1023A00008950895FECF0895EF92FF921F93CF9363
:1023B000DF9300D000D0CDB7DEB778D1182F609171
:1023C0003A06882309F446C019821A821B821C82AD
:1023D000862F90E09E012F5F3F4F7901B9018E5CFF
:1023E000994F91D18823E9F08091290690E044E04B
:1023F00050E0B7018E5C994F0E94122E21E020938D
:10240000B605892BC9F410E00E941904812F0F90A2
:102410000F900F900F90DF91CF911F91FF90EF9051
:1024200008958091B605882371F384E0F701119235
:102430008A95E9F71092B605E0912906F0E0EE5C86
:10244000F94F89819A81AB81BC8180839183A2837A
:10245000B383DACF70E06E5C794F8091290690E00B
:102460008E5C994FD5D19EDFD1CFF894E82FE295BD
:10247000EF70F0E031A1282F2F7081E090E001C0D3
:10248000880F2A95EAF7982F9095932391A392A10C
:10249000892B82A378940895CF93DF9384E9E5DFB5
:1024A00086E6E3DF87E9E1DF86ECDFDFCAE1D5E03E
:1024B00089918F3F09F0D9DF85E0C132D807C1F794
:1024C000DF91CF910895B0E0A0E0E9E6F2E10C944D
:1024D0007C2DEC01D62E062F10E0C8018F5D9A4F9F
:1024E0007C01FC0180818F3F09F442C0F894E82F01
:1024F000E295EF70F0E091A18F7021E030E001C033
:10250000220F8A95EAF7892F822B81A382A1209539
:10251000282322A3789441DFEAE1F5E041E255E087
:1025200031E0C12C21912F3F41F1A22FA295AF7034
:10253000B0E090968C9190E02F7002C095958795B1
:102540002A95E2F780FD19C0832FC82A330F4E1752
:102550005F0741F7F70180818F3F09F086DF61E077
:10256000C11001C060E08D2D1ADFC00FD11FC882DD
:10257000CDB7DEB7E8E00C94982D80E0E6CF8091EF
:10258000EE018091EE0194E0811190E090933A0683
:1025900084E0891B809329067FDF88E0E2E3F6E090
:1025A000DF01982F1D929A95E9F7EAE2F6E0DF0144
:1025B0001D928A95E9F784E043D00C94170408959E
:1025C000A8E0B0E0E6EEF2E10C947E2D8E010F5F04
:1025D0001F4F88E0F80111928A95E9F7F12C6F2DD1
:1025E000C80171DFF394F4E0FF12F9CF48E050E046
:1025F000B8018AE296E00E94122E7C0121E0892B2C
:1026000009F420E0E114F10441F088E0F801AAE2C5
:10261000B6E001900D928A95E1F760913A0670E07C
:102620006E5C794F44E08AE296E00BD081E090E066
:10263000E114F10409F4B8DE2896E6E00C949A2D32
:102640000895FF920F931F93CF93DF93F82E092FD6
:10265000162FD72FC42F222349F081E08093B9058C
:102660000E94B2229093B8058093B7058091B90576
:102670008823A1F08091B7059091B8050E94CA22E5
:10268000059760F0EF2DF02FA12FBD2FCE0FDF2F7C
:10269000D11DEC17FD0739F41092B905CDB7DEB79F
:1026A000E5E00C949B2D81918D93F3CF8091BC0537
:1026B000811107C00E94A029882351F081E08093F6
:1026C000BC0581E09091BC05913009F080E008954F
:1026D00082E08093BC050E949C29F3CFE7CF089548
:1026E000FDDF8093EE01E2DF811142C00895DEDF5D
:1026F000811101C040C0089581E09091BD059A30DC
:1027000008F080E008950F931F93CF93DF93EC01BF
:102710008B018091BD058A30B0F4B801CE0176D02E
:10272000C82F811122C08091BD058F3FB9F40E944E
:10273000B2229093BB058093BA058C2FDF91CF9185
:102740001F910F9108958091BA059091BB050E9449
:10275000CA22843F914008F7C0E0EFCF8F5F80939B
:10276000BD058A3020F7C1E0E8CF1092BD05E5CF66
:102770000C941B2008950C941E200895B0E0A0E056
:10278000E4ECF3E10C947D2D7901C82F880FDD0B6B
:1027900041155105A9F0FE0193E0EE0FFF1F9A9538
:1027A000E1F7E151FE4F8181928182549A4F20815D
:1027B00030E04217530708F49A01A9010E941F2E26
:1027C000CE010E94FF20D82E8823D1F001151105DB
:1027D000B9F083E0CC0FDD1F8A95E1F7FE01E151EE
:1027E000FE4F438150E00417150708F4A801C151BA
:1027F000DE4F6C817D8162547A4FC7010E941F2E8B
:102800008D2DCDB7DEB7E7E00C94992DF2C0089579
:1028100005C10895A4E0B0E0E0E1F4E10C94802D5E
:102820006091D3057091D4058091D5059091D6051E
:102830000E94D92211E0643671058105910508F1E5
:1028400063DD6E5F7F4F8F4F9F4F69837A838B83EA
:102850009C8310E000E030E020E044E050E0BE0166
:102860006F5F7F4F82E08ADF182F882351F00E942C
:10287000BE226093D3057093D4058093D5059093C1
:10288000D605812F2496E4E00C949C2DB0E0A0E0C6
:10289000ECE4F4E10C947A2D7C015B016A012CDFFD
:1028A00001E010E0882311F00AE010E0C1E0D0E080
:1028B000B501C701F6010995811104C021960C17D5
:1028C0001D072CF4CDB7DEB7EAE00C94962DCC9F13
:1028D0009001CD9F300D300D112490E080E045E354
:1028E0004A95F1F70000019682179307C1F7E0CFF0
:1028F000A5E0B0E0EEE7F4E10C947A2D5B01E09006
:102900002505F090260501E010E09E012B5F3F4F6A
:1029100050E040E070E060E080E030DF182F882376
:1029200009F44AC067018FEFC81AD80A6091CF0531
:102930007091D0058091D1059091D2050E94D92245
:10294000643671058105910578F104E010E09E017F
:102950002F5F3F4F50E040E070E060E081E00EDF2D
:10296000F82E64E070E0C6010E94691D11E09D81AF
:10297000981310E01F2159F10E94BE226093CF05E9
:102980007093D0058093D1059093D20589819A8167
:10299000AB81BC818093CB059093CC05A093CD05F2
:1029A000B093CE0511E013C064E070E0C6010E9450
:1029B000691D9D818913C9CFF70181819281A3810E
:1029C000B48189839A83AB83BC831111DFCF80915B
:1029D000CB059091CC05A091CD05B091CE05F50128
:1029E00080839183A283B383812F2596EAE00C94A0
:1029F000962D0F931F93CF93DF93EC018B0148E744
:102A000054E144DF882329F04AE054E1B801CE01C3
:102A10003DDFDF91CF911F910F9108950F931F9389
:102A2000CF93DF93C0912505D0912605CE01019665
:102A300024E0FB01DC0101900D922A95E1F764E0AE
:102A400070E00E94691D88836D817E818F819885E9
:102A50000091C7051091C8052091C9053091CA059C
:102A6000601771078207930749F06093C705709359
:102A7000C8058093C9059093CA052ADCDF91CF91E0
:102A80001F910F9108950E949C24C0D90C94A624F4
:102A900008950E94AA2430DA0C94C02408950E945C
:102AA0004B220E9483249ED9EEDFF3DFA6D9FDCF0F
:102AB0008554990BBC01990F880B990B0E94AC2A85
:102AC00020E030E040E451E40E94162A9B01AC0172
:102AD00060E070E080E090E40E94C32B20E030E0F2
:102AE0004CED53E40C94602B0895FB018D312CE5E3
:102AF000920731F48281882371F1A9D380E008958F
:102B00008E312CE5920729F48281882321F1AED3FE
:102B1000F5CF8F312CE5920739F482818823D9F0E3
:102B200075D18111F4CFE9CF8A322CE5920759F49F
:102B30008281882381F0DED540E064E070E087E0A8
:102B400092E0CAD1DBCF8B329C4529F48281882365
:102B500011F0D3D5F1CF81E00895AADF74C30895B1
:102B6000A7DF56C2089556C1089508950895CF92DB
:102B7000DF92EF92FF9280910806811176C08091DA
:102B80000706811172C080918F0680FF6EC0609130
:102B900043027091440280914502909146029B014C
:102BA000AC010E94AE296B017C010E94042EBC0185
:102BB000990F880B990B0E94AC2A20E03EEF4FEF53
:102BC00056E40E94162A20913F0230914002409123
:102BD0004102509142020E94602B20E030E040E828
:102BE0005FE30E94AE29A70196010E94602B6093CB
:102BF0002F027093300280933102909332020E9430
:102C0000042EBC01990F880B990B0E94AC2A20E07E
:102C10003EEF4FEF56E40E94162A20913F0230917A
:102C2000400240914102509142020E94602B20E0FC
:102C300030E040E85FE30E94AE29209143023091EA
:102C4000440240914502509146020E94602B6093DD
:102C50003702709338028093390290933A0240E031
:102C600063E070E087E292E037D1FF90EF90DF9071
:102C7000CF900895CF92DF92EF92FF9229E038E350
:102C800048E95FE3609143027091440280914502FC
:102C9000909146020E94602B6B017C0120E030E89D
:102CA0004BEB54E40E94122A87FF08C0C0924302F3
:102CB000D0924402E0924502F0924602FF90EF90DB
:102CC000DF90CF900895CF92DF92EF92FF9229E0AC
:102CD00038E348E95FE360914302709144028091D8
:102CE0004502909146020E94162A6B017C0120E069
:102CF00030E042E852E40E945C2B181644F4C09283
:102D00004302D0924402E0924502F0924602FF90C4
:102D1000EF90DF90CF90089580E090E0ACEDB3E4C9
:102D20008093430290934402A0934502B0934602DD
:102D3000089590918F06892F8D7F91FF82608093F7
:102D40008F060C94540E089580918F0682608093B4
:102D50008F060C94540E089580918F068D7F80937A
:102D60008F060C94540E08950F931F93CF93DF9307
:102D7000EC018B01C0328CE5D80771F4FB01828134
:102D80008111D7DFC432FCE5DF0731F5F80182811C
:102D9000882311F198DF20C0C132FCE5DF0791F0F4
:102DA000C2328CE5D807A1F0C532ECE5DE0741F16F
:102DB000C3328CE5D80731F7F8018281882361F0AE
:102DC00059DF0AC0FB0182818823E1F2BDDFDACF3F
:102DD000FB0182818111C0DF80918F068370833077
:102DE00049F4F8018281882329F0CE51DC452297ED
:102DF00008F0BDDE81E0DF91CF911F910F91089522
:102E0000F8018281882341F387DFE6CF80918F0626
:102E10008170089580914702811121C01092E205CE
:102E2000E7D31092E1051092E0051092DE051092B2
:102E3000DD05EFE4F6E080E090E0A0E8BFEB118272
:102E4000108282839383A483B58317821682389677
:102E500026E0EF38F20799F781E080934702089562
:102E6000CF92DF92EF92FF92E091E2058E17E8F4A5
:102E7000E150E81B88E0E802F0011124E15BF94F22
:102E8000C280D380E480F58020E030E0A901C70152
:102E9000B6010E94122A181644F4C701B60130D4B4
:102EA000FF90EF90DF90CF90089560E070E0CB014D
:102EB000F7CF9C01A0E6BAEE0E94632D209180021C
:102EC00040E4249F90011124032E000C440B550B69
:102ED0000E943B2DC9010895EF92FF921F93CF935B
:102EE000DF93EC017B01142F80918F0680FD07C0DA
:102EF00091DFDF91CF911F91FF90EF900895809126
:102F0000D705811101C058D08091E005811182DF81
:102F100081E08093E1051092DA05D0934E06C093CC
:102F20004D06F0923C06E0923B06109390061092FC
:102F3000DC051092DB056C817D818E819F810E9472
:102F40007E2ACB01B6DFAC01688179818A819B81C1
:102F5000D2D00E94B2229093D9058093D805E091F7
:102F60004D06F0914E068091DB059091DC0523E043
:102F7000880F991F2A95E1F7E80FF91F6481758181
:102F8000868197810E947E2ACB0193DF9093DE0594
:102F90008093DD05AECF80918F0680FF06C040E0B4
:102FA00063E070E088E692E097DF0E94B22290939F
:102FB000D9058093D80508958091D705811127C040
:102FC0000E94180E811102C00E94D20E0E944F0E64
:102FD00080938F06EFE4F6E080E090E0A0E8BFEB9E
:102FE0001182108282839383A483B5831782168211
:102FF000389626E0EF38F20799F78091D7058111CE
:1030000004C0EDD281E08093D70504DFC4CF0895DA
:10301000B0E0A0E0EEE0F8E10C947C2D6B017C01C7
:1030200020E030E0A9010E94122A87FF04C0F7FACD
:10303000F094F7F8F0948091E005882309F456C0E5
:103040008091D705811101C0B7DF0FE416E0C7E01A
:10305000D0E0A7019601F80162AD73AD84AD95ADE6
:103060000E94122A81113BC083E0CC0FDD1F8A959C
:10307000E1F7C15BD94F1982188280E090E0A0E8A7
:10308000BFEB8A839B83AC83BD831F821E82AC010E
:10309000BD01F6E0C738DF0781F4C1E0C093DF056A
:1030A0008091E20581508093E20581111FC0A0D27A
:1030B000C09347021092E00519C088E0FE013896DF
:1030C000DE0101900D928A95E1F7198618864A87EC
:1030D0005B876C877D871F861E862896DACF2197AF
:1030E00008501109CF3FDC0709F0B3CFCDB7DEB7E9
:1030F000E8E00C94982DB0E0A0E0E1E8F8E10C9451
:10310000782D6B017C018A0180918F0680FF78C049
:103110008091D705811101C04FDF20E030E0A90187
:10312000C701B6010E94122A87FF04C0F7FAF09483
:10313000F7F8F094D091E2052D2F2150330B59016F
:103140003FEFA316B30609F03FC0DF5FD93008F4A4
:1031500077C088E08093E2058FE496E028E0FC01E8
:103160003896DC0101900D922A95E1F70896E6E089
:1031700087389E0799F781E08093DF058093E0050B
:10318000C091E205C150DD0B0E94B222FE0123E096
:10319000EE0FFF1F2A95E1F7E15BF94F91838083E2
:1031A000C282D382E482F582178306830E94B22210
:1031B0009093ED058093EC0580914702882301F1FF
:1031C00019D2109247021CC0C50133E0880F991F25
:1031D0003A95E1F7FC01E15BF94F4F01A701960138
:1031E00062817381848195810E94122A811124C099
:1031F000E4018091E2058150990BA816B9062CF0E4
:10320000CDB7DEB7ECE00C94942DFFEFAF1ABF0AF8
:1032100088E0FE013896DE0101900D928A95E1F773
:103220000E94B22299878887CA86DB86EC86FD8653
:103230001F870E872896DDCF21E0A21AB10880CF24
:10324000D093E20598CF4FEF5FEF55CF089580916F
:103250008F06816080938F060E94540E86DC40E0CA
:1032600062E070E088E592E037CE089540E062E0E9
:1032700070E088E492E030DE79DC2FEF81EE94E0BC
:10328000215080409040E1F700C00000C3DD8091F4
:103290008F068E7F80938F060C94540E08958F9224
:1032A0009F92AF92BF92DF92EF92FF920F931F9384
:1032B000CF93DF938091E005811105C0C091E105B6
:1032C000CC2309F4ACC00E94B222EC01D090E105FD
:1032D000D11023C0D12C8091E005CD2D8823A1F001
:1032E000C091EE05C11105C0C091EF05C11101C02B
:1032F000CD2D0FE416E0F12CE12C8091E2058E1526
:103300001F0411F00CF0E4C08091DF05882309F45C
:1033100086C01092DF05C82F82C08091D805909199
:10332000D9050E94CA222091DD053091DE05821761
:10333000930780F28091D8059091D9050E94CA2206
:103340002091DD053091DE057C01E21AF30AD0936D
:10335000D905C093D805A090DB05B090DC05C50168
:1033600001969093DC058093DB050E94B222909336
:10337000ED058093EC0500913B0610913C06809191
:10338000DB059091DC058017910748F0C09190060D
:10339000CC2309F443C01092DC051092DB05C091E8
:1033A0004D06D0914E068090DB059090DC05809113
:1033B000DA0533E0880C991C3A95E1F781113CC09D
:1033C000F50123E0EE0FFF1F2A95E1F7EC0FFD1F3B
:1033D000DE01A80DB91D2D913D914D915C9160814B
:1033E0007181828193810E94122A811125C081E01E
:1033F0008093DA0582E090E05CDDAC0160E070E093
:10340000CB0179DEB092DC05A092DB0582E090E092
:1034100050DD9093DE058093DD055DCFFBDC8C2FC6
:10342000DF91CF911F910F91FF90EF90DF90BF90B0
:10343000AF909F908F9008951092DA05FE01E80DED
:10344000F91D64817581868197810E947E2ACB0156
:1034500030DD015011092091DB053091DC058E151E
:103460009F0518F420173107D0F08C010E191F09A1
:10347000E816F90610F001E010E083E0220F331F98
:103480008A95E1F7C20FD31F688179818A819B8178
:10349000A80131DE1093DE050093DD051CCFE81A8C
:1034A000F90A2F5F3F4F3093DC052093DB0593E053
:1034B000220F331F9A95E1F7FE01E20FF31F64819B
:1034C0007581868197810E947E2ACB01F2DCC3CF71
:1034D000F8018681978101978E3F9F4F80F4F80114
:1034E000808191810E94CA22F8012681378182174A
:1034F000930728F0628173818481958189DDFFEFD4
:10350000EF1AFF0A085F1F4FF8CECF92DF92EF92BB
:10351000FF926B017C0120E030E0A9010E94122A99
:1035200081110AC0809180008F7380938000FF908A
:10353000EF90DF90CF900895809180008068809315
:103540008000C092E705D092E805E092E905F0928C
:10355000EA0520E030E040E051E4C701B6010E94F6
:10356000602B9B01AC0160E074E284E79BE40E9465
:10357000162A6B017C010E947E2A7093870060935B
:1035800086006091810270E090E080E00E94AC2AA9
:10359000A70196010E94602B20E030E048EC52E445
:1035A0000E94162A0E947E2A7093890060938800E8
:1035B000BECFEFE6F0E0808182608083E0E8F0E05B
:1035C0008081806880830895EFE6F0E080818D7FC0
:1035D0008083E0E8F0E080818F7380830895F4DFDA
:1035E000259A82E0809380008AE18093810008958B
:1035F000EBCF0895DEDF8091E005882319F080E0AD
:103600002FDC83CF08951F920F920FB60F921124D3
:10361000CF92DF92EF92FF922F933F934F935F935E
:103620006F937F938F939F93AF93BF93EF93FF938A
:103630008091E3059091E405A091E505B091E60540
:103640000196A11DB11D8093E3059093E405A0931D
:10365000E505B093E6056091E3057091E40580917E
:10366000E5059091E6050E94AA2A6B017C0120E005
:1036700030E040E85CE36091E7057091E8058091F7
:10368000E9059091EA050E94602B9B01AC01C701FE
:10369000B6010E94122A87FD12C01092E305109213
:1036A000E4051092E5051092E605F9DD9091E0053C
:1036B00091111AC09091E105911116C085DFFF911B
:1036C000EF91BF91AF919F918F917F916F915F919A
:1036D0004F913F912F91FF90EF90DF90CF900F90FF
:1036E0000FBE0F901F901895882349F380E0B8DB38
:1036F0000CDFE5CF1092EB0508951092EB050895CD
:103700002091EB05211102C01092EF0508958091E0
:103710000806811128CA089521E08F3F910508F01D
:1037200020E0822F0895F8CF0895F1DF1092080667
:1037300040E068E070E082E093E0CECB0895109224
:10374000070640E068E070E082E892E0C5CB0895AB
:10375000DEDF2091240430E02F5F3F4F23703327BA
:103760002093240448E2429FC001439F900D1124FE
:1037700040E065E070E08E579C4FAECB0895CF934C
:1037800080910406882309F43EC08091F005909151
:10379000F105009781F5E6D69093F1058093F00549
:1037A000E091F2058091F3058150990BEE2321F011
:1037B0002E2F2150330BC90120910806222379F0C6
:1037C000F0E0EC50FA4FC0818C509A4FFC018081A0
:1037D000C7D980910806882311F08C2FBED980911B
:1037E000F20590E001966091F30570E00E94282DAB
:1037F0008093F20508C0CED6209122043091230494
:103800002817390740F2CF91089581E08093080688
:1038100040E068E070E082E493E05EDB0C94D1036A
:103820000895089581E08093070640E068E070E025
:1038300082EC92E051DBF5CF0895EF92FF921F9357
:10384000CF93DF93CDB7DEB7A3970FB6F894DEBF63
:103850000FBECDBF7C0186324CE59407A1F4DB019D
:1038600012968C91882309F453C0CFDF80E0A39691
:103870000FB6F894DEBF0FBECDBFDF91CF911F9181
:10388000FF90EF9008958732BCE59B0739F4FB0168
:103890008281882309F43CC048DFE8CF8832FCE508
:1038A0009F0751F480910806DB0112969C919923A1
:1038B00079F18111F1CFD9CF8C32BCE59B0731F47E
:1038C000FB018281882321F1ADDFD0CF8D32FCE571
:1038D0009F0739F4DB0112968C918823C9F02FDF02
:1038E000C5CF8E32BCE59B0749F4FB01828188235A
:1038F00079F0809107068111F2CFE6CF89329C459D
:1039000039F4DB0112968C91882311F021DFAECFC0
:1039100020910806211105C080910706882309F42B
:10392000D5C0FB013281332309F44DC0F0EEEF1610
:10393000F10459F4ECDE81E080930606109205064E
:10394000109204061092F30591CF42EEE416F104B2
:1039500069F4DDDE80910606882319F081E080930A
:103960000506109206061092040680CF83EEE81634
:10397000F10489F480910506882329F1C8DE1092AC
:10398000060681E0809304061092F2051092F1057C
:103990001092F0056BCF92E5E916F10451F4809195
:1039A0002204909123040A97909323048093220485
:1039B0005DCFA1E5EA16F10431F4809122049091E3
:1039C00023040A96F1CF80912404109127048111D9
:1039D00011C0135080912504180FFB018081180F2E
:1039E000418188E090E0841B9109FCE08F9F100DDD
:1039F000112414C0813061F5105E80912504180FE8
:103A0000DB018C91180F11964C9188E090E0841B9B
:103A10009109982F990F990F890F180F332309F4E3
:103A20004FC0222311F0812F98D880910606882359
:103A300051F08091F305E82FF0E0EC50FA4F10833D
:103A40008F5F8093F305C7016EDE91E089270FCF6A
:103A5000823071F4105E80912504180FFB01808183
:103A6000180F418188E090E0841B9109F7E0BECFF8
:103A70008330A1F683E2E5E9F4E0DE0111960190DE
:103A80000D928A95E1F7DB01EC9181E090E08C0FDB
:103A90009D1F8E0F911DFC0180912504909126049D
:103AA000E80FF91F13508081180F11964C9188E090
:103AB00090E0841B9109ACE08A9F100D1124AECFD9
:103AC000222309F4C0CF812F4BD8BDCF81E0CFCEC8
:103AD0000895FC01680F791F8FEF91E36E177F0740
:103AE00009F408952191822728E030E087FF06C07D
:103AF000880F892721503109C9F7F0CF880FFACFF5
:103B0000CF93DF93EC01FB018281882309F45CC130
:103B1000C430FDE5DF07C0F5CB3F9CE5D90730F4A5
:103B20009E0122503C4524313105B0F50E94330EF0
:103B30009093280680932706C1318CE5D80709F4B5
:103B400000C108F05EC0C930ECE5DE0709F4C8C06A
:103B5000C8F5C5308CE5D80709F4BAC000F5C33004
:103B6000ECE5DE0709F4ACC008F0AEC0C230DC45BD
:103B700009F4A0C080912706909128060E94410E6A
:103B80000E94740880E008C0C236EDE5DE0771F2DD
:103B9000C63AFDE5DF0751F2DF91CF91089580919C
:103BA00027068062C7309CE5D90709F486C080915A
:103BB00027068061C830DC4508F47FC08091270665
:103BC00080647BC0CD30FCE5DF0709F4AAC058F45F
:103BD000CB309CE5D90709F4A0C008F487C08091D8
:103BE00027068D7F6AC0809127068F7ECF30FCE547
:103BF000DF0709F462C008F498C0809127068F7D22
:103C00005CC0CE3F9CE5D90709F497C038F5C531B3
:103C1000FCE5DF0709F4B5C080F4C3319CE5D907A2
:103C200009F499C008F491C00E9474089091270685
:103C3000892F97FB87F9805840C0CC3FFCE5DF0710
:103C400009F44AC008F075C0809128068160CB3F16
:103C5000DC4509F08FCF809328068CCFC230EDE58C
:103C6000DE0709F49FC0B0F4C1158DE5D80709F44B
:103C70007DC008F447C080912806982F90959170D8
:103C80008E7F892B90FB81F98093280640E081FF8D
:103C900073C03EC0C236EDE5DE0709F487C0C63A00
:103CA000FDE5DF0709F489C0C330DD4509F062CFC7
:103CB00080E079C0809127068160809327065ACFE3
:103CC000809127068260F9CF809127068460F5CF26
:103CD000809127068860F1CF809128068260BBCF53
:103CE0000E947408809127068068E7CF809127069C
:103CF0008C608093270640E064E070E088E594E003
:103D0000EBD838CF8091280683608093280640E066
:103D100064E070E088E294E0F3CF809127068E7F24
:103D2000CCCF809127068B7FC8CF80912706877FD5
:103D3000C4CF809128068E7F8ECF809128068D7FFC
:103D40008ACF809127068F7BB8CF0E94740880911C
:103D500027068F77B2CF80912706837F809327062F
:103D600040E062E070E088E794E0CACF80912806E6
:103D70008C7F8093280640E062E070E088E494E065
:103D8000BFCF8091270682FB992790F921E09227E7
:103D900090FB82F990FB83F98093270640E083FF34
:103DA000E0CFAACF81E00E94D40EE4CE9091270606
:103DB000892F8F7E94FF806180CF90912706892F75
:103DC0008E7F90FF816079CF81E0E6CECF93DF9345
:103DD000EB0186319C4511F50E94410D9A81992392
:103DE00099F08A7A91E009F490E0909309068111A4
:103DF00009C089E20E94190D0E947F0D80E0DF91C9
:103E0000CF91089585E3F6CF80910906811104C012
:103E100089E20E94210DF0CF85E3FBCF81E0EFCF57
:103E20000F931F93CF93DF93C42FD22FFC01828176
:103E30008823C1F040930C0695D390930B06809392
:103E40000A0680E28C0F883040F4C77081E001C020
:103E5000880FCA95EAF70E944A06DF91CF911F9119
:103E60000F91089510910C06141331C080910A0629
:103E700090910B068FD38436910548F5C0E2CD0FA3
:103E80001D17B9F080E2810F883040F4177081E08F
:103E900001C0880F1A95EAF70E944F06C83048F40F
:103EA00081E09D2F977001C0880F9A95EAF70E94D4
:103EB0004A06802F0E944206C83078F6D77081E00B
:103EC00001C0880FDA95EAF70E944F06C6CF80E25C
:103ED0008C0F883010F6C77081E001C0880FCA953A
:103EE000EAF7F2CF0F939C01CB01243F4CE5340756
:103EF00051F1A0F4293DFCE53F07F9F02A3D4CE5DE
:103F00003407C9F1283D3C4589F406E221EE41EE33
:103F100068ED7CE585DF80E00F910895263FFCE5A4
:103F20003F07E9F0B0F0273F3C45F9F0FC01828102
:103F3000882339F110920C06EFCF07E225EE45EE0B
:103F400069ED7CE5E7CF06E221EE40EE64EF7CE52B
:103F5000E1CF07E225EE44EE65EF7CE5DBCF06E23C
:103F600021EE42EE66EF7CE5D5CF07E225EE46EE88
:103F700067EF7CE5CFCF08E221E045EE6AED7CE516
:103F8000C9CF81E0C9CF8EE14A9B02C08150E1F7E1
:103F90004A9BFECF08955A9880E28A95F1F75A9A83
:103FA0000895FC013BE03A95F1F798E020E080E0CD
:103FB00031E040E14A95F1F7880F4A9B02C08160E9
:103FC000232742E04A95F1F7000040E14A95F1F7D6
:103FD000915079F790E19A95F1F799B132E03A95DD
:103FE000F1F7000040E14A95F1F792FB992790F92B
:103FF00092272081920F90830895A1E0B0E0E3E042
:10400000F0E20C947E2D19828C017C01E60EF11CED
:104010000E151F0541F481E09981911180E02196F0
:10402000E6E00C949A2DAFDFCE010196BADFF801DD
:1040300081938F01EDCF529A5A9A089552985A9AC5
:10404000EA9AE9E6F0E080818F7C808308956150F0
:10405000770B91E001C0990F6A95EAF720E031E013
:10406000911108C0222391F05A9A80E28A95F1F7C3
:104070005A980895492F482339F05A9A232740E245
:104080004A95F1F79695ECCF5A98F9CF5A98EDCF1B
:10409000FF920F931F93CF93DF93EC018C01060FD8
:1040A000111DC017D10729F4CDB7DEB7E5E00C9498
:1040B0009B2DF99070DF68E08F2DC9DFF2CF1F9242
:1040C0000F920FB60F9211240F931F932F933F93CC
:1040D0004F935F936F937F938F939F93AF93BF9310
:1040E000EF93FF93CF93DF930F92CDB7DEB7198293
:1040F0004ADFCE01019655DF082F069506950695F5
:10410000282F22952570902F9570290F922F93704C
:1041100026952695920F982797708981982B09F0FC
:1041200058C0043008F055C080E18A95F1F75A9ADA
:10413000529A82E08A95F1F700C05A9888E0089F69
:1041400080011124D801A151BE4F1696ED91FC912A
:1041500017973097A9F06091250570912605149660
:104160002D913C911597260F371F11968D919C919B
:104170001297680F791F13964C9113978C9109959C
:10418000F801E151FE4F6381662349F02091250536
:104190003091260584819581820F931F79DFFBDEA4
:1041A00080E18A95F1F75A9852985A9A80E18A9557
:1041B000F1F7F801E151FE4F6081662349F020914B
:1041C00025053091260581819281820F931F15DF8D
:1041D000DADE0F90DF91CF91FF91EF91BF91AF9118
:1041E0009F918F917F916F915F914F913F912F910F
:1041F0001F910F910F900FBE0F901F9018950F9366
:104200001F93CF93DF93EC0104970CF049C0F8940F
:10421000529A5A9885E08A95F1F700009C2F96955E
:1042200095708C2F8570980F892F83709695969531
:1042300023E0CC0FDD1F2A95E1F7980F8E01092BA3
:10424000AADE00C068E0802F02DF80E18A95F1F7E6
:1042500052985A9A4A9B1DC087E090E04A991BC029
:10426000FE01E151FE4F63816623F1F020912505A7
:104270003091260584819581820F931FBEDE8111C6
:1042800013C0529A5A9A7894DF91CF911F910F914F
:10429000089500C0DFCF019729F4529A5A9A789472
:1042A00080E0F2CF00C0DACF6EDE80E28A95F1F7CF
:1042B0005A98529A80E18A95F1F7C151DE4F688190
:1042C000662349F0209125053091260589819A8140
:1042D000820F931FDDDE5FDE789481E0D5CF90936F
:1042E000290580932805089590931306809312065C
:1042F00008950E945613811103C080910D06089500
:10430000E0911206F0911306309729F00190F081A8
:10431000E02D0995089580E00895E0911206F0914E
:104320001306309721F00280F381E02D099508955E
:1043300020911006309111062817390771F09093DB
:10434000110680931006E0911206F0911306309743
:1043500021F00680F781E02D0995089520910E0641
:1043600030910F062817390771F090930F0680934C
:104370000E06E0911206F0911306309721F00084AA
:10438000F185E02D099508959C012E5F3F4FAC010A
:10439000485F5F4F80E02417350709F40895F9015D
:1043A00091919F019923B9F38F5FF5CF662349F06F
:1043B000FC01329608962191261729F0E817F90793
:1043C000D1F780E0089581E008959C01FC013296C8
:1043D0009FEF80E04191461751F09F3F19F4411142
:1043E00001C0982F8F5F8630A9F79F3F09F4089589
:1043F000290F311D97FD3A95F90162830895FC015B
:10440000329608962191261303C0DF0111971C9262
:10441000E817F907B9F70895D8CF0895F0CF0895B0
:10442000029626E0FC0111922A95E9F70895089575
:10443000FECF0895811105C081E080931406F8CF66
:10444000089582E0FACF83E080931406F1CF0895B7
:10445000F1CF089581E080931406EACF0895FACF52
:10446000089508950895FECF089508950895F9CF09
:104470000895CF93FADF0E94E012F8DFC0E08C2F9E
:104480000E94C211811105C0CF5FC830C1F7CF9122
:10449000089581E0FCCF85B7806885BF85B78068C7
:1044A00085BF08951F921FB61F9211248F939F936B
:1044B000AF93BF9380911506811113C0809191062F
:1044C00090919206A0919306B09194064196A11DF9
:1044D000B11D8093910690939206A0939306B0939A
:1044E0009406BF91AF919F918F911F901FBE1F9017
:1044F000189580919906843031F10E94A70410929A
:10450000150688E190E020E40FB6F894A895809312
:1045100060000FBE2093600083B7817F846083BFFB
:1045200083B7816083BF7894889583B78E7F83BF7C
:104530000FB6F894A8958091600088618093600020
:10454000109260000FBE08950E9474080C94AD0490
:10455000089582E084BD93E095BD9AEF97BD809366
:104560006E0008952FB7F89480919106909192066D
:10457000A0919306B09194062FBF08952FB7F89499
:1045800060919106709192068091930690919406A5
:104590002FBF08959C014FB7F89480919106909198
:1045A0009206A0919306B09194064FBF821B930B85
:1045B0000895CF92DF92EF92FF922FB7F894C090B8
:1045C0009106D0909206E0909306F09094062FBF4B
:1045D000A7019601261B370B480B590BCA01B901DD
:1045E000FF90EF90DF90CF90089578941F921FB6C0
:1045F0001F9211248F939F93AF93BF938091910645
:1046000090919206A0919306B09194060196A11DF7
:10461000B11D8093910690939206A0939306B09358
:104620009406BF91AF919F918F911F901FBE1F90D5
:10463000189587E797E7909301088093000888E131
:104640009AE00FB6F894A895809360000FBE9093FF
:104650006000FFCF88E19AE00FB6F894A8958093A8
:1046600060000FBE90936000FFCF809121060895F7
:104670000895CF93DF93EC0181E08093E9008FEF01
:104680009091E800815095FD06C095ED9A95F1F75F
:1046900000008111F5CF8091E80085FF13C050E044
:1046A00040E068E070E0CE01DCD18091E8008E77D8
:1046B0008093E80088E0FE01A9E1B6E001900D9248
:1046C0008A95E1F7DF91CF91089580931606709354
:1046D000180660931706809199068430F9F482E0F9
:1046E0008093E9008FEF9091E800815095FD06C01E
:1046F00095ED9A95F1F700008111F5CF8091E800D2
:1047000085FF0CC050E040E063E070E086E196E099
:10471000A8D18091E8008E778093E8000895BC01CD
:1047200084E0D3CF0895BC0183E0CFCF08950895EE
:1047300080919806811107C022D379D38091E2003D
:1047400084608093E200089510929806089582CEC6
:1047500008956091950681E0611101C080E073CEFB
:1047600008959091990681E0943009F080E060917D
:1047700095066ECE089542E061EC81E07CD242E283
:1047800061EC82E078D29091990681E0943009F052
:1047900080E0609195064ECE089580919B0683300F
:1047A00009F45FC030F48130C9F1823009F49AC055
:1047B00008958A3009F487C08B3009F46DC08930C0
:1047C00009F04EC080919A06813209F049C080916B
:1047D0009E0690919F06029708F042C08091E800E3
:1047E000877F8093E8008091E80082FF35C0909138
:1047F000F3008091F200029731F48091F100813052
:1048000011F0863021F48091F1008093210680918F
:10481000E8008B778093E80062D222C080919A06EC
:10482000813AF1F48091E800877F8093E8008091DD
:104830009E0690919F06892B59F468E089E196E0E5
:1048400070E05CD18091E8008B778093E800089558
:1048500060E090E080E0F4CF809199068111C3CFB1
:10486000089580919A06813AD9F780919E06909199
:104870009F06892BA9F78091E800877F8093E80045
:104880008091E80080FFFCCF809194048093F10038
:104890008091E8008E77BECF80919A06813201F731
:1048A00080919E0690919F06892BD1F68091E80019
:1048B000877F8093E80013D280919C0680939404B4
:1048C0000C947408089580919A06813249F680917B
:1048D000E800877F8093E80002D280919D06809354
:1048E0002206089580919A06813A09F0B9CF809105
:1048F000E800877F8093E8008091E80080FFFCCF8C
:1049000080912206C3CF84B7877F84BF0FB6F89407
:10491000A89580916000886180936000109260008B
:104920000FBE80E890E00FB6F894809361009093FA
:1049300061000FBE94CD089522D279D2E2EEF0E06C
:104940008081846080837894DDC4089588E894E051
:10495000CBCC089580919906853029F480919906F1
:10496000853011F0F1CD0895C4DD8091970688233C
:10497000A9F37FDD882391F35ED00E947408EECF07
:10498000089501C00895292F33272330310519F1E7
:1049900068F42130310509F444C02230310509F4AE
:1049A00045C090E080E030E020E025C021323105B4
:1049B00049F122323105A9F780E490E02DE335E09A
:1049C00061157105C1F082E390E02BE035E06130C4
:1049D000710589F0E6CF99278130910581F0009724
:1049E00029F00297F1F6EEE8F4E002C0EAEBF4E019
:1049F000849190E09F01FA01318320830895E4EAD5
:104A0000F4E0F6CF89E090E020ED34E06115710527
:104A100091F389E090E029EE34E06130710559F3BB
:104A2000C0CF82E190E029EF34E0E5CF8BE390E066
:104A30002EEB34E0E0CF80E189BD82E189BD09B48D
:104A400000FEFDCF8091D8008F7D8093D8008091AB
:104A5000E00082608093E0008091E00081FDFCCF67
:104A60000895AF92BF92CF92DF92FF920F931F9360
:104A7000CF93DF936C01EB018A0150D1F82E8111A5
:104A800023C00115110539F0F80180819181C81BFF
:104A9000D90BC80ED91EB12CA12C2097A9F080915A
:104AA000E80085FD21C08091E8008E778093E800C2
:104AB00001151105A1F0F80180819181A80EB91EA0
:104AC000B182A08285E0F82E8F2DDF91CF911F91CA
:104AD0000F91FF90DF90CF90BF90AF9008951ED1BF
:104AE0008823D9F2F82EF0CFF60181916F018093DF
:104AF000F1002197FFEFAF1ABF0ACFCFFC018091E1
:104B0000A0069091A10686179707A0F06115710580
:104B100029F49091E8009E779093E80090E0611569
:104B2000710551F4911108C08091E80082FF34C0F2
:104B300080E00895BC01F2CF809199068823C1F1ED
:104B40008530C1F18091E80083FD30C08091E8009C
:104B500082FDEACF8091E80080FFE1CF8091F300F1
:104B60002091F200382F6115710519F028303105B8
:104B700058F091E02830310509F090E02091E800EC
:104B80002E772093E800CBCF81918093F100615084
:104B900071092F5F3F4FE7CF80919906882341F03D
:104BA000853041F08091E80083FFBECF81E0089519
:104BB00082E0089583E00895FC018091A006909121
:104BC000A10686179707A0F06115710529F4809159
:104BD000E8008E778093E80090E06115710551F44C
:104BE000911108C08091E80082FF35C080E00895EF
:104BF000BC01F2CF809199068823C9F18530C9F1B3
:104C00008091E80083FD31C08091E80082FDEACF09
:104C10008091E80080FFE1CF8091F3002091F200C5
:104C2000382F6115710519F02830310558F091E0E1
:104C30002830310509F090E08091E8008E7780936C
:104C4000E800CBCF84918093F100319661507109D7
:104C50002F5F3F4FE6CF80919906882341F0853042
:104C600041F08091E80083FFBDCF81E0089582E0AC
:104C7000089583E00895982F973028F08F708093DF
:104C8000E90081E008959093E900242F762F50E009
:104C9000981731F07091EC002091ED005091F000E8
:104CA00021FD02C09F5FE8CF3091EB003E7F309343
:104CB000EB003091ED003D7F3093ED003091EB0043
:104CC00031603093EB007093EC002093ED00509333
:104CD000F0002091EE0027FDE5CF80E0089580915F
:104CE0009A0687FF13C08091E80082FF06C080917A
:104CF000E8008B778093E80004C0809199068111C9
:104D0000F2CF0895809199068823D9F38091E80025
:104D100080FFF8CF8091E8008E77ECCF2091E400FF
:104D20003091E50095E6A9012091EC00822F817079
:104D300020FF06C08091E80080FF06C080E0089553
:104D40002091E80022FD1AC080919906882389F0FD
:104D5000853089F08091EB0085FD0FC02091E40043
:104D60003091E50042175307F9F29150E1F684E0E3
:104D7000089582E0089583E0089581E0089568D061
:104D80006FD0E0EEF0E0808181608083E8EDF0E0BC
:104D900080818F77808319BCA7EDB0E08C918E7FE6
:104DA0008C9380818F7E80831092980608950F9354
:104DB0001F93CF93DF934CD053D0C8EDD0E08881C0
:104DC0008F77888388818068888388818F7D8883B6
:104DD00019BC10929906109295061092970610929F
:104DE000960600EE10E0F80180818B7F8083888139
:104DF0008160888342E060E080E03DDFE1EEF0E04A
:104E000080818E7F8083E2EEF0E08081816080830C
:104E1000808188608083F80180818E7F8083888193
:104E200080618883DF91CF911F910F910895E8ED04
:104E3000F0E080818F7E8083E7EDF0E0808181600B
:104E4000808384E082BF81E080939806B0CF08958C
:104E5000E8EDF0E080818E7F80831092E20008957B
:104E60001092DA001092E10008951F920F920FB68F
:104E70000F9211242F933F934F935F936F937F93E0
:104E80008F939F93AF93BF93EF93FF938091E10034
:104E900082FF0AC08091E20082FF06C08091E1009B
:104EA0008B7F8093E1002DD28091DA0080FF18C0C3
:104EB0008091D80080FF14C08091DA008E7F8093AB
:104EC000DA008091D90080FF91C080E189BD82E144
:104ED00089BD09B400FEFDCF81E08093990628DCEE
:104EE0008091E10080FF18C08091E20080FF14C033
:104EF0008091E2008E7F8093E2008091E2008061E9
:104F00008093E2008091D80080628093D80019BC21
:104F100085E0809399061DDC8091E10084FF2AC022
:104F20008091E20084FF26C080E189BD82E189BDD5
:104F300089B5982F917080FFFBCF8091D8008F7D2D
:104F40008093D8008091E1008F7E8093E100809172
:104F5000E2008F7E8093E2008091E2008160809386
:104F6000E20080919506882309F445C084E080938F
:104F70009906F7DB8091E10083FF27C08091E20072
:104F800083FF23C08091E100877F8093E10082E06E
:104F900080939906109295068091E1008E7F809310
:104FA000E1008091E2008E7F8093E2008091E20038
:104FB00080618093E20042E060E080E05CDE80910E
:104FC000F00088608093F000C2DBFF91EF91BF9109
:104FD000AF919F918F917F916F915F914F913F9191
:104FE0002F910F900FBE0F901F90189519BC109223
:104FF0009906AADB75CF8091E30087FD93E090933B
:105000009906B7CF1F920F920FB60F9211242F93CC
:105010003F934F935F936F937F938F939F93AF9340
:10502000BF93CF93DF93EF93FF93D091E900DF70AD
:105030008091EC00C82FC17080FDC0E81092E9009B
:105040008091F000877F8093F00078941ED01092BA
:10505000E9008091F00088608093F000CD2BCF7044
:10506000C093E900FF91EF91DF91CF91BF91AF9194
:105070009F918F917F916F915F914F913F912F9170
:105080000F900FBE0F901F901895AAE2B0E0EAE4CF
:10509000F8E237C58AE996E02091F100FC012193FE
:1050A000CF01F6E0823A9F07B9F777DB8091E800FD
:1050B00083FF16C180919A0690919B069A3008F062
:1050C0000FC1E92FF0E0E356F14DF7C4803899F0B5
:1050D000823809F005C180919E068F70873008F0F4
:1050E000FFC08093E9008091EB0085FB882780F961
:1050F0001092E90006C08091960690919706911152
:1051000082609091E800977F9093E8008093F1008F
:105110001092F1008091E8008E77DFC0882309F4B7
:10512000CDC0823009F0DCC080919C068111D0C0D6
:1051300080919E068F702FEF280F263008F0D0C088
:105140008093E9002091EB0020FFC2C0933031F43E
:105150008091EB0080628093EB00BAC09091EB00ED
:1051600090619093EB0021E030E001C0220F8A951E
:10517000EAF72093EA001092EA008091EB00886041
:10518000EACF8111ADC010919C061F778091E3009A
:105190008078812B8093E3008091E800877F809363
:1051A000E8009DDD8091E80080FFFCCF8091E30066
:1051B00080688093E30082E0111183E08093990678
:1051C0008FC08058823008F08BC080919C069091EF
:1051D0009D068C3D23E0920799F583E08A838AE25D
:1051E00089834FB7F894DE01139620E03EE051E248
:1051F000E32FF0E050935700E49120FF03C0E295C5
:10520000EF703F5FEF708E2F90E0EA30B8F0C796F6
:105210008D939D932F5F243159F74FBF8091E80004
:10522000877F8093E8006AE270E0CE01019666DC39
:105230008091E8008B778093E80052C0C096E8CF59
:1052400060919E0670919F06AE014F5F5F4F99DBA4
:10525000BC01892B09F444C09091E800977F90939A
:10526000E80089819A81A8DCE3CF8038C9F5809174
:10527000E800877F8093E800809195068093F10095
:1052800049CF81112DC090919C06923048F58091B4
:10529000E800877F8093E8009093950620DD809159
:1052A0009506882311F084E005C08091E30087FD16
:1052B000FACF81E0809399065EDA12C080919C0655
:1052C000813071F481E0933009F080E0809397069B
:1052D0001092E9008091E800877F8093E800FFDC6E
:1052E0008091E80083FF0AC08091E800877F809367
:1052F000E8008091EB0080628093EB00AA96E3E0E7
:105300001CC40895CF9380919906882399F0C09189
:10531000E900CF709091EC00892F817090FD80E8BA
:10532000C82B1092E9008091E80083FDAEDECF70BB
:10533000C093E900CF91089522DD10929906089557
:10534000E8EDF0E08081806180838AE18A95F1F761
:1053500000C08091D900817008955058BB27AA27BA
:105360000ED070C161D130F066D120F031F49F3F92
:1053700011F41EF456C10EF4E095E7FB4CC1E92F81
:1053800072D180F3BA17620773078407950718F084
:1053900071F49EF58AC10EF4E0950B2EBA2FA02D64
:1053A0000B01B90190010C01CA01A0011124FF27D2
:1053B000591B99F0593F50F4503E68F11A16F040CD
:1053C000A22F232F342F4427585FF3CF46953795CC
:1053D0002795A795F0405395C9F77EF41F16BA0B91
:1053E000620B730B840BBAF09150A1F0FF0FBB1F3F
:1053F000661F771F881FC2F70EC0BA0F621F731F88
:10540000841F48F4879577956795B795F7959E3FE4
:1054100008F0B3CF9395880F08F09927EE0F979572
:1054200087950895D4D008F481E008950CD00AC17E
:1054300002D140F0F9D030F021F45F3F19F0EBC019
:10544000511134C1EEC00FD198F39923C9F35523FC
:10545000B1F3951B550BBB27AA2762177307840767
:1054600038F09F5F5F4F220F331F441FAA1FA9F31D
:1054700033D00E2E3AF0E0E830D091505040E6950F
:10548000001CCAF729D0FE2F27D0660F771F881F70
:10549000BB1F261737074807AB07B0E809F0BB0B5F
:1054A000802DBF01FF2793585F4F2AF09E3F510583
:1054B00068F0B1C0FBC05F3FECF3983EDCF386952B
:1054C00077956795B795F7959F5FC9F7880F911DF9
:1054D0009695879597F90895E1E0660F771F881FE5
:1054E000BB1F621773078407BA0720F0621B730B98
:1054F000840BBA0BEE1F88F7E0950895BCD088F0B6
:105500009F5790F0B92F9927B751A0F0D1F0660FAF
:10551000771F881F991F1AF0BA95C9F712C0B130CA
:1055200081F0C3D0B1E00895C0C0672F782F8827DD
:10553000B85F39F0B93FCCF3869577956795B39509
:10554000D9F73EF490958095709561957F4F8F4F78
:105550009F4F0895E89409C097FB3EF4909580957D
:10556000709561957F4F8F4F9F4F9923A9F0F92F29
:1055700096E9BB279395F695879577956795B795A7
:10558000F111F8CFFAF4BB0F11F460FF1BC06F5F8D
:105590007F4F8F4F9F4F16C0882311F096E911C09F
:1055A000772321F09EE8872F762F05C0662371F0C0
:1055B00096E8862F70E060E02AF09A95660F771FD4
:1055C000881FDAF7880F9695879597F90895990FB0
:1055D0000008550FAA0BE0E8FEEF16161706E807BD
:1055E000F907C0F012161306E407F50798F0621BDE
:1055F000730B840B950B39F40A2661F0232B242BB3
:10560000252B21F408950A2609F4A140A6958FEFD1
:10561000811D811D089597F99F6780E870E060E023
:1056200008959FEF80EC089500240A94161617063B
:1056300018060906089500240A9412161306140683
:1056400005060895092E0394000C11F4882352F0E6
:10565000BB0F40F4BF2B11F460FF04C06F5F7F4F9E
:105660008F4F9F4F089557FD9058440F551F59F085
:105670005F3F71F04795880F97FB991F61F09F3F3F
:1056800079F087950895121613061406551FF2CF68
:105690004695F1DF08C0161617061806991FF1CFB8
:1056A00086957105610508940895E894BB276627DF
:1056B0007727CB0197F908958ADF08F48FEF0895D3
:1056C0000BD0C0CFB1DF28F0B6DF18F0952309F07A
:1056D000A2CFA7CF1124EACFC6DFA0F3959FD1F3C5
:1056E000950F50E0551F629FF001729FBB27F00D90
:1056F000B11D639FAA27F00DB11DAA1F649F6627E5
:10570000B00DA11D661F829F2227B00DA11D621F33
:10571000739FB00DA11D621F839FA00D611D221FED
:10572000749F3327A00D611D231F849F600D211DD1
:10573000822F762F6A2F11249F5750408AF0E1F074
:1057400088234AF0EE0FFF1FBB1F661F771F881FBD
:1057500091505040A9F79E3F510570F05CCFA6CF05
:105760005F3FECF3983EDCF3869577956795B795A8
:10577000F795E7959F5FC1F7FE2B880F911D9695D2
:10578000879597F90895FA01EE0FFF1F30962105CE
:10579000310599F16115710561F48038BFE39B070C
:1057A00049F168949038810561F08038BFEF9B071C
:1057B00041F0992342F5FF3FE1053105210511F143
:1057C000E8940894E795D901AA2329F4AB2FBE2FBA
:1057D000F85FD0F310C0FF5F70F4A695E0F7F739DB
:1057E00050F019F0FF3A38F49F779F930CD00F9048
:1057F00007FC905808953EF014CF60E070E080E818
:105800009FE308954FE79F775F934F933F932F93C5
:105810009ED02F913F914F915F9152DF05C019F4B7
:105820000EF0F9CE42CFFDCE26DFC8F39638C0F792
:1058300007F80F92E8942BE33AEA48EB5FE74EDF74
:105840000F920F920F924DB75EB70F92C0D0ECEA55
:10585000F0E016D04F915F91EF91FF91E595EE1F2B
:10586000FF1F49F0FE57E0684427EE0F441FFA95EA
:10587000E1F74195550B32D00F9007FE26C00895F1
:10588000DF93CF931F930F93FF92EF92DF927B01F1
:105890008C01689405C0DA2EEF011EDFFE01E8944A
:1058A000A5912591359145915591AEF3EF0167DDB5
:1058B000FE019701A801DA9479F7DF90EF90FF904D
:1058C0000F911F91CF91DF9108959B01AC0160E092
:1058D00070E080E89FE3AACD9ECEACC0CCDEE8F3BA
:1058E0009923D9F3940F511DBBF39150504094F07C
:1058F00059F0882332F0660F771F881F915050406F
:10590000C1F79E3F510544F7880F911D96958795E5
:1059100097F908955F3FACF0983E9CF0BB278695C1
:1059200077956795B79508F4B1609395C1F7BB0F6C
:1059300058F711F460FFE8CF6F5F7F4F8F4F9F4F95
:10594000E3CFB4CE0EF076C06CCE689464CE93DE16
:10595000C8F39923D1F3C6F3DF93CF931F930F932B
:10596000FF92C92FDD2788232AF02197660F771F22
:10597000881FDAF720E030E040E85FEB9FE38839EA
:1059800020F0803E30F021968F77E8DCE4EDF0E007
:1059900003C0E4DCE1E0F1E073DF8B01BE01EC0168
:1059A000FB2E6F5771097595771F880B990BD4DD06
:1059B00028E132E741E35FE38FDEAF2D9801AE01CE
:1059C000FF900F911F91CF91DF91D9DC3BCEFA016F
:1059D000DC01AA0FBB1F9B01AC01BF5728F4222793
:1059E0003327442750781FC0B75188F4AB2F0024C9
:1059F000469537952795011CA395D2F3002069F0B1
:105A0000220F331F441FB395DAF30DD0A6CC6130BB
:105A10007105A0E88A07B94630F49B01AC016627FE
:105A2000772788279078309621F02083318342832E
:105A3000538308959F3F31F0915020F487957795D7
:105A40006795B795880F911D9695879597F9089555
:105A500097FB072E16F4009406D077FD08D079D076
:105A600007FC05D03EF4909581959F4F0895709561
:105A700061957F4F0895A1E21A2EAA1BBB1BFD0161
:105A80000DC0AA1FBB1FEE1FFF1FA217B307E4071D
:105A9000F50720F0A21BB30BE40BF50B661F771F75
:105AA000881F991F1A9469F7609570958095909555
:105AB0009B01AC01BD01CF010895EE0FFF1F0590C2
:105AC000F491E02D0994A29FB001B39FC001A39F60
:105AD000700D811D1124911DB29F700D811D112427
